:4000000000800020110000009D0200009D02000080B500AF024B034A12681A6000F06CF9BC760040FA46004010B5054C237833B9044B13B10448AFF300800123237010BD76
:40004000D881FF1F00000000F069000008B5064B1BB106480649AFF300800648036813B1054B03B1984708BD00000000F0690000DC81FF1F0881FF1F0000000080B592B000
:4000800000AF02F0CBFD03F051F803F065F80020002100F099FB62B6002387F847303A1D07F147031046194600F002F8F7E700BF80B584B000AF786039600023FB73002343
:4000C000FB7300F02DFD0346002B06D000F01CFD0346002B01D000F0D1FE00F015FD0346002B3ED000F07EFF0346002B39D000F0A9FF0346FB73FB7B002B32D03B681B788B
:400100007A681344FA7B1A7000BF00F083FF0346002BFAD0FB7B184600F04EFFFB7B7F2B09D13B68002B0CD03B681B78013BDAB23B681A7005E03B681B780133DAB23B68BA
:400140001A70FB7B0D2B0CD13B681B78013B7A68134400221A70786800F006F83B6800221A701037BD4680BD80B59AB002AF7860424BFB657868424904F070F90346002B3E
:4001800006D078683F4904F069F90346002B09D100BF00F03FFF0346002BFAD0F86D00F095FE67E07868384904F058F90346002B06D07868354904F051F90346002B50D1E2
:4001C000002002F0CFFF0346002B30D0002002F0E1FF0346184602F0FBFF0346184603F029FE02460B46C7E91423002002F0D2FF03461A4607F10C03009218462449D7E935
:40020000142304F007F90020002102F017FD07F10C03184602F048FD00BF00F0FBFE0346002BFAD007F10C03184600F04FFE00F0D9FE0346002B13D000F004FF034687F84F
:400240004F3097F84F301B2B0AD100BF00F0E2FE0346002BFAD00F4800F038FE00BF09E0AEE700BF00F0D6FE0346002BFAD00A4800F02CFE6037BD4680BD00BFF869000025
:40028000486A0000506A0000546A0000606A0000646A0000746A0000806A000080B400AFFEE700BF80B584B000AF7860104B1A687B6813441A460F4BD31AB3F5007F09DC73
:4002C0000B4B1B68FB600A4B1A687B681A44084B1A6007E004F060F803460C221A604FF0FF33FB60FB6818461037BD4680BD00BF0C81FF1F1083FF1F80B586B000AF224B0B
:400300007B61224B3B61204B7B6135E03B691B68FB603B695B68BB603B699B683B6000237B600CE0FB681A68BB681A60BB680433BB60FB680433FB607B6804337B607A6889
:400340003B689A42EED13B69DB683B6000237B6008E0BB6800221A60BB680433BB607B6804337B607A683B689A42F2D13B6910333B617B69013B7B617B69002BC6D104F071
:4003800011F8FFF77BFEFEE701000000586F000080B582B000AF184B184A1A60184B184A126842F400721A6000237B600FE07B68032B04D8134B7A6853F8223000E0124B6E
:4003C000124A796842F821307B6801337B607B682F2BECD90E4B1B78DAB20E4B1A700E4B0A4A1A6000F050F903F0E2F80B4B00221A600837BD4680BD0CED00E00004FA056C
:4004000014ED00E0000000009D0200000080FF1FBC7600400481FF1F08ED00E00081FF1F80B582B000AF78603960786800213A6803F0E7FF0837BD4680BD00BF80B584B06B
:4004400000AFF860B9607A60F868B9687A6803F0CFFF1037BD4680BD80B483B000AF0346FB71FEE780B487B000AF7860396000233B6100237B6126E07B699B007A68134420
:400480001B68BB60BB68FB73BB6823F0FF03BB6013E03B695B003A6813441B781A46BB6813443A69520039680A4452781A703B6901333B61FB7B013BFB73FB7B002BE8D13C
:4004C0007B6901337B617B69212BD5D91C37BD465DF8047B704700BF80B582B000AF304B27221A802F4B18221A702F4B06221A702E4B52221A702E4B2E4A1278D2B21A70AC
:400500002D4B40F618021A802C4B41F251221A800023FB7019237B6014E0FB785B00DAB2274B1B78DBB203F00103DBB21343DBB203F00303FB704FF4F07003F025F87B68BC
:40054000013B7B607B68002B02D0FB78032BE4D17B68002B02D10320FFF77EFF194B4FF480721A80174B07221A70174B00221A70164B48221A70134B00221A70144B002281
:400580001A70144B02221A70134B134A1278D2B242F00102D2B21A700837BD4680BD00BF80400040824000400043004000420040A14600400F01004922420040204200408D
:4005C000254200400440004006400040084000400940004001400040A243004080B483B000AF1E4B1B78FB711D4B1B78BB711D4B1B787B711C4BFA7902F00702D2B21A7024
:400600001A4BFA791209D2B21A70154BBA7942F00302D2B21A70134B7A7942F00302D2B21A70134B7C221A70124B40221A70124B40221A70114BF0221A70114B20221A7013
:40064000084B7A791A70064BBA791A700D4B44221A700C37BD465DF8047B7047CF010049F8460040F94600406E5800406F5800403D510040095900400B590040285B004089
:400680002B5B00407658004080B582B000AF72B63A4B01221A70FFF71FFF394B384A1278D2B242F00402D2B21A700023FB7113E0FA7913465B0013445B00324A13443B60BF
:4006C0003B681A683B689B889BB210461946FFF7A7FEFB790133FB71FB79072BE8D94FF090402949FFF7BEFE28480421FFF798FE274828490422FFF7A1FE274B264A12789C
:40070000D2B242F00202D2B21A70244B234A1278D2B242F00202D2B21A70214B204A1278D2B242F04002D2B21A701E4B1D4A1278D2B242F01002D2B21A701B481B490A223A
:40074000FFF77CFE1A481B490822FFF777FE1A481A490822FFF772FE194B194A1278D2B242F00802D2B21A70FFF738FF15480C490E22FFF763FE0837BD4680BD00480040CD
:40078000E8460040C46A0000880000480076004008760040F40400480350014013500140A0430040C2430040F0510040D804004822510040E404004832510040EC040048F6
:4007C00022430040B043004080B582B000AF02460B46FA71BB71094B1B78002B04D100F00FF8064B01221A70FA79BB791046194600F0CCF80837BD4680BD00BFF481FF1F1E
:4008000080B582B000AF02F0C9FE0346FB714F4B4E4A1278D2B242F00102D2B21A704C4B4B4A1278D2B242F00102D2B21A70494B01221A70484B02221A70484B474A127804
:40084000D2B202F07F02D2B21A70002003F0EAF8434B434A1278D2B222F00602D2B21A70404B404A1278D2B222F02002D2B21A703B4B3B4A1278D2B242F00102D2B21A706C
:40088000012003F0CFF8282003F0CCF8364B364A1278D2B202F07F02D2B21A70324B324A1278D2B222F04002D2B21A702C4B2C4A1278D2B242F00202D2B21A70022003F011
:4008C000B1F8274B264A1278D2B242F00402D2B21A70264B00221A70254B00221A70FB79184602F05FFE1720224903F0ADF81720072103F0D1F815201F4903F0A5F8152008
:40090000072103F0C9F818201C4903F09DF81820072103F0C1F80120194903F095F80120072103F0B9F80220164903F08DF80220072103F0B1F80320134903F085F80320C9
:40094000072103F0A9F80837BD4680BDA5430040B54300409D60004009600040106000409443004012600040F85100408460004085600040A91700009D1700006D100000BA
:4009800099160000ED1600004117000080B584B000AF02460B46FA71BB710023FB7306E0FB7B294A0121D154FB7B0133FB73FB7B012BF5D9254B4FF400021A60234B4FF0DA
:4009C00080721A60214B02221A60204B04221A601E4B08221A601E4B00221A70BB79002B02D0012B04D007E01A4B02221A7007E0184B03221A7003E0164B03221A7000BF7E
:400A0000154BFA791A70154B00221A70144B00221A70144B00221A70134B00221A70134B00221A70124B00221A70124B03221A70114B80221A70012002F0A6FD0F4B042250
:400A40001A701037BD4680BDC082FF1F00E100E02E82FF1F096000402982FF1F4782FF1F3C82FF1F4482FF1F4682FF1F4982FF1F2882FF1F286000400860004012600040A4
:400A800080B483B000AF0023FB7106E0FB79144A0121D154FB790133FB71FB79012BF5D9104B00221A70104B00221A700F4B00221A700F4B00221A700E4B00221A700E4B98
:400AC00000221A700D4B00221A700D4B03221A700C4B80221A700C37BD465DF8047B7047C082FF1F2E82FF1F4782FF1F3C82FF1F4482FF1F4682FF1F4982FF1F2882FF1F7F
:400B0000286000400860004080B400AF034B1B78DBB21846BD465DF8047B70474782FF1F80B483B000AF0023FB71094B1B78DBB2002B05D0064B1B78FB71054B00221A70BC
:400B4000FB7918460C37BD465DF8047B704700BF4482FF1F80B485B000AF0346FB710023FB81FB79002B1DD0FB79082B1AD8FB79013BDBB21B017B737A7B0E4B13441B781F
:400B8000DBB203F00F03FB81FB891B029AB2797B094B0B441B78DBB213439BB2FB81FB89023BFB81FB8918461437BD465DF8047B704700BF0C6000400D60004090B484B0DC
:400BC00000AF396013460246FA71BB80FB79002B69D0FB79082B66D8FB79013BDBB21B017B737A7B324B1344BB60B988FA79314813465B0013449B000344DB889BB2C3F5FC
:400C0000007399420BD9FA792A4913465B0013449B000B44DB889BB2C3F50073BB807A7B254B13441946BB881B0A9BB2D8B2FA79204C13465B0013449B002344DB78DBB26B
:400C40000343DBB20B707A7B1C4B1344BA88D2B21A703B68002B0FD00023FB8108E0FB893A6813441A78BB681A70FB890133FB81FA89BB889A42F2D3FA790E4913465B001A
:400C800013449B000B4400225A707A7B0C4B13441946FA79074813465B0013449B0003445B79DBB20B701037BD4690BC704700BF886000404C82FF1F0C6000400D60004001
:400CC0000E60004080B586B000AF396013460246FA71BB80FB79002B30D0FB79082B2DD83B68002B2AD0FB79013BDBB21B017B757A7D164B13443B61FB791846FFF72AFFB4
:400D00000346FB81BA88FB899A4201D9FB89BB800023FB8209E0FB8A3A6813443A691278D2B21A70FB8A0133FB82FA8ABB889A42F1D3FB79184600F00BF801E00023BB80D0
:400D4000BB8818461837BD4680BD00BF8860004080B485B000AF0346FB71FB79002B1ED0FB79082B1BD8FB79013BDBB21B01FB73FA790D4913465B0013449B000B440022C1
:400D80005A70FA7B094B13441946FA79064813465B0013449B0003445B79DBB20B701437BD465DF8047B70474C82FF1F0E60004080B582B000AF0023FB71294B1B78DBB2B4
:400DC000DBB25BB2002B11DA264B1B78DBB2212B00D00AE0244B07221A80234B234A5A6000F0C0FA0346FB7100BF34E01C4B1B78DBB2DBB25BB2002B2DDB1A4B1B78DBB2DA
:400E0000202B02D0222B13D025E0174B07221A80154B164A5A60164B1B78DBB243F00103DAB2134B1A7000F01DFB0346FB7112E0104B1B78DBB21A460F4B1A800C4B1B782D
:400E4000DBB243F00203DAB2094B1A7000F0AAFB0346FB7100BFFB7918460837BD4680BD00600040016000403082FF1F1081FF1F2482FF1F026000402282FF1F80B500AF1D
:400E8000044B00221A70044B1B78DBB21846FFF75FFF80BD2482FF1F2082FF1F80B485B000AF78600023FB8102E0FB890133FB81FB897A6813441B78002BF6D1FB8918468C
:400EC0001437BD465DF8047B704700BF80B584B000AF78600023BB817868FFF7DFFF0346FB81334B1B78DBB21A46324913465B0013449B000B4408331B889BB2FA899A429A
:400F00000DD92B4B1B78DBB21A462A4913465B0013449B000B4408331B889BB200E0FB897B81234B1B78D9B2BB897A681A447B89084611461A46FFF741FEFA897B89D31A20
:400F4000FB81FB89002B0FD1194B1B78DBB21A46184913465B0013449B000B4408331B889BB27A899A421DD1BA897B891344BB8100BF0F4B1B78DBB21A460E4913465B00B6
:400F800013449B000B445B78DBB2002BF1D0FB89002B07D1064B1B78DBB2184600210022FFF70CFEFB89002B9BD11037BD4680BD2182FF1F4C82FF1F80B584B000AF03465B
:400FC000FB71FB79FB73064B1B78DAB207F10F03104619460122FFF7F1FD1037BD4680BD2182FF1F80B400AF084B1B78DBB21A46074913465B0013449B000B445B78DBB2CA
:401000001846BD465DF8047B704700BF2082FF1F4C82FF1F80B400AF084B1B78DBB21A46074913465B0013449B000B445B78DBB21846BD465DF8047B704700BF2182FF1F92
:401040004C82FF1F80B582B000AF074B1B78DAB2FB1D104619460122FFF734FEFB7918460837BD4680BD00BF2082FF1F80B582B000AF374B1B78BB71BB7903F01003002B59
:4010800063D00123FB71BB795BB2002B13DABB7903F00F03012B02D00023FB711DE000F061F82C4B1B78DBB2DBB25BB2002B14DA0023FB7111E0BB7903F04003002B02D0D7
:4010C00000F094F809E0BB7903F02003002B02D000F0B2F801E00023FB71FB79002B34D01B4B1B78BB71BB795BB2002B2DDB1A4B1B78DAB2194B1B78DBB21343BB71184B11
:40110000BA791A70164B1B78DBB2BA799A421CD1104B1B78FB710E4B1B78DBB223F07F03BB71BB79002B0AD1094B0A4A1278D2B21A70074B1B78DBB203F00F03FB71054B34
:401140001B78DBB2FA799A42E2D10837BD4680BD286000404582FF1FBA82FF1F4882FF1F2960004080B582B000AF1D4B1B78FB711B4BFA791A701A4B1B78FB71FB795BB251
:40118000002B03DA174BFA791A7025E0022000F049FA154B1B78DBB203F06003202B08D0402B0BD0002B0ED100F0E6FC0346FB710CE002F093FC0346FB7107E001F0C0FCE8
:4011C0000346FB7102E00023FB7100BFFB79002B02D1044B03221A700837BD4680BD00BF286000404582FF1F0060004080B500AF104B1B78DBB2062B19D801A252F823F08E
:401200002F1200002F1200001D1200002F120000231200002F1200002912000000F0FCF806E000F0AFF903E000F0D8F900E000BF80BD00BF2E82FF1F80B500AF124B1B78C8
:40124000DBB2062B1DD801A252F823F0831200008312000069120000831200006F120000831200007512000000F0DCF80AE000F02DF907E0032000F0D5F9044B03221A705A
:4012800000E000BF80BD00BF2E82FF1F4582FF1F80B483B000AF0023FB712B4B1B78DBB21A462A4B1B889BB213449AB2274B1A8018E0FB7903F1804303F5C043244A5268EB
:4012C0001278D2B21A70224B5B685A1C204B5A60FB790133FB711E4B1B889BB2013B9AB21B4B1A801A4B1B889BB2002B02D0FB79072BDED9144B1B78DBB2082B02D0FB79EF
:40130000002B0FD0134B1B78DBB283F07F03DB43DAB2104B1A70104B0F221A700F4B02221A7005E00C4B02221A700C4B02221A70054BFA791A700A4BFA791A700C37BD46AF
:401340005DF8047B704700BF2882FF1F2A82FF1F3082FF1FBA82FF1F4582FF1F2E82FF1F4882FF1F80B582B000AF154B1B889BB2002B02D100F02EF81DE0124B02221A704A
:40138000114B00221A7000F06DF9104B1B78DBB21B029AB20E4B1B78DBB213439BB2FB80074B1B889BB2FA889A4202D2044BFA881A80FFF76DFF012318460837BD4680BD12
:4013C0003082FF1F2E82FF1FBA82FF1F076000400660004080B400AF0A4B02221A700A4B80221A70094B0F221A70094B00221A70084B00221A7001231846BD465DF8047BDA
:40140000704700BF2E82FF1FBA82FF1F4582FF1F2882FF1F4882FF1F80B500AFFFF738FF80BD00BF80B500AF0A4B1B78DBB21A46094B1B889BB213449AB2074B1A80074B8E
:4014400000221A70012000F0EDF8054B03221A7080BD00BF2882FF1F2A82FF1F2E82FF1F4582FF1F80B582B000AF124B04221A70114B80221A7000F0F5F8104B1B78DBB287
:401480001B029AB20E4B1B78DBB213439BB2FB800C4B1B889BB2FA889A4202D2094BFA881A80094B0B221A70012318460837BD4680BD00BF2E82FF1FBA82FF1F07600040A9
:4014C000066000403082FF1F4582FF1F80B483B000AF0023BB71254B1B78DBB203F00F03DBB2023BFB71FB799AB2214B1B889BB213449AB21E4B1A801BE01E4B5A68BB7945
:4015000003F1804303F5C0431B78DBB21370194B5B685A1C174B5A60BB790133BB71FB79013BFB71134B1B889BB2013B9AB2114B1A80104B1B889BB2002B02D0FB79002B3A
:40154000DBD10D4BFA791A700C4B1B78DBB283F07F03DB43DAB2094B1A70094B0B221A700C37BD465DF8047B704700BF296000402A82FF1F3082FF1F4882FF1FBA82FF1F36
:401580004582FF1F80B500AF044B00221A70012000F048F8024B03221A7080BD2E82FF1F4582FF1F80B400AF084B06221A70084B06221A70074B80221A70074B00221A70C1
:4015C00001231846BD465DF8047B70472E82FF1F4582FF1FBA82FF1F4882FF1F80B500AF0C4B1B78DBB2002B0AD00B4B094A1278D2B262F07F02D2B21A70064B00221A70F1
:40160000064B00221A70012000F00CF8044B03221A7080BD4682FF1F086000402E82FF1F4582FF1F80B483B000AF0346FB710B4B9B68002B0CD0094B9B68FA791A70074B4B
:401640009B68074A128892B25A80044B00229A600C37BD465DF8047B704700BF3082FF1F2A82FF1F80B400AF094B00221A80094B9B68002B07D0074B9B6800221A70054B2C
:401680009B6800225A80BD465DF8047B704700BF2A82FF1F3082FF1F80B400AF104B1B78104B1B7BDBB203F00303012B08D00D4BDB7BDBB283F07F03DB43DAB2094BDA737D
:4016C000084B01225A73084B074A1278D2B222F00102D2B21A70BD465DF8047B704700BF0E6000404C82FF1F0B60004080B400AF104B1B78104B1B7EDBB203F00303012BC9
:4017000008D00D4BDB7EDBB283F07F03DB43DAB2094BDA76084B01225A76084B074A1278D2B222F00202D2B21A70BD465DF8047B704700BF1E6000404C82FF1F0B60004092
:4017400080B400AF124B1B78124B93F82430DBB203F00303012B0AD00E4B93F82730DBB283F07F03DB43DAB20A4B83F82720094B012283F82520084B074A1278D2B222F055
:401780000402D2B21A70BD465DF8047B704700BF2E6000404C82FF1F0B60004080B400AFBD465DF8047B704780B500AFFFF768F980BD00BF80B582B000AF0023FB716F4B5C
:4017C0001B78BB716E4B1B78DBB2DBB25BB2002B6DDA6C4B1B78DBB2013B052B65D801A252F823F0431800005D18000089180000AB180000AB180000FD170000624B1B787A
:40180000DBB2212B0BD100F0CBF8604B1B889BB2002B15D0FFF7A6FD0346FB7146E05A4B1B78DBB2222B0BD100F0F8F8574B1B889BB2002B04D0FFF795FD0346FB7135E070
:4018400034E000F031F9514B1B889BB2002B04D0FFF788FD0346FB7128E027E0BB79012B11D84B4B1B78DBB2002B0CD1474B01221A80BA79474B1A44444B5A60FFF772FD49
:401880000346FB7112E011E0BB79012B0CD83F4B01221A80BA79404B1A443C4B5A60FFF761FD0346FB7101E000E000BF61E0344B1B78DBB2DBB25BB2002B5ADB314B1B7836
:4018C000DBB20A2B11D00B2B3FD0092B00D050E000F0EAF82D4B1B889BB2002B04D0FFF7C1FD0346FB7144E043E0BB79012B2BD8274B1B78DBB2002B26D1BB79224A1278A2
:40190000D1B2244AD154BB79224AD35CDAB2BB792249CB5CDBB29A4204D2BB791F4A0021D1540CE0BB791D4AD35CDBB2012B06D9BB79BA7917498A5CD1B2184AD154FFF753
:4019400031FE0346FB7114E013E0BB79012B0FD80F4B1B78DBB2012B0AD8BB790C4A1278D1B20D4AD154FFF71DFE0346FB71FFE700BFFB7918460837BD4680BD046000405A
:401980000060004001600040036000403082FF1F02600040C882FF1FC082FF1FC482FF1F80B584B000AF194B1B78DBB2013BDBB2184600F015FFF860154B1B78FB72FB7AB1
:4019C0000233DB00FA681344FB60FB685B68FB60FB7A104AD35CDBB2DB00FA681344FB60FB685B68FB60FB682033FB60FB685B687B607B681B78DBB21A46074B1A80064B95
:401A00007A685A601037BD4680BD00BF4782FF1F04600040B882FF1F3082FF1F80B584B000AF1D4B1B78DBB2013BDBB2184600F0D7FEF860194B1B78FB72FB7A0233DB0044
:401A4000FA681344FB60FB685B68FB60FB7A144AD35CDBB2DB00FA681344FB60FB685B68FB60FB681833FB60FB685B687B607B6801331B78DBB21B029AB27B681B78DBB225
:401A800013439BB29AB2074B1A807B689A1C054B5A601037BD4680BD4782FF1F04600040B882FF1F3082FF1F80B584B000AF2C4B00221A802B4B1B78DBB2013BDBB2184666
:401AC00000F08EFEF860284B1B78FB72274B1B78BB72BB7A0233DB00FA681344FB60FB685B68FB60BB7A012B37D8BB7A204AD35CDBB2DB00FA681344FB60FB685B68FB6058
:401B0000FB7A002B29D0FB7A032B26D8FB7A03F10053013BDB00FA681344FB60154B1B78FB72FB681B78FA7A9A4216D8FB685B687B60FA7A13465B0013449B007A6813449C
:401B40007B607B685A68064B5A607B681A88044B1A807B689A68024B9A601037BD4680BD3082FF1F4782FF1F0360004004600040B882FF1F0260004080B586B000AF002384
:401B8000FB7500233B619D4B00221A809C4B1B78DBB2DBB25BB2002B80F20581994B1B78DBB20A2B00F2FD8001A252F823F000BFF71C0000A31D0000A31D0000A31D0000D4
:401BC000A31D0000A31D0000DD1B0000A31D00006D1D0000A31D0000831D00008A4B1B78DBB2012B0ED100F025FEB860BB685A68824B5A60814B12221A80FFF7B3FB0346A5
:401C0000FB7577E0804B1B78DBB2022B23D17F4B1B78DBB2184600F0E3FDB860BB68002B68D0BB685A68754B5A60744B5B6803331B78DBB21B029AB2704B5B6802331B7835
:401C4000DBB213439BB29AB26C4B1A80FFF78AFB0346FB75A6E06C4B1B78DBB2032B44D10023FB736A4B3B6109E03B691B78FB71FB793A6913443B61FB7B0133FB73634B85
:401C80001B78DBB2FA7B9A4204D23B691B78DBB2002BEAD15D4B1B78DBB2EE2B01D15D4B3B615A4B1B78DBB2002B0BD0574B1B78DAB2594B1B7C9A4204D1584800F0ACF98F
:401CC000564B3B613B691B78DBB2002B12D03B691B78DBB21A46494B1A80484B3A695A60FFF740FB0346FB755CE001F0F7FE0346FB7557E056E0424B1B78DBB203F00303BC
:401D0000002B1FD0022B00D02FE03C4B02221A80434B1B78DBB203F07F02424913465B0013449B000B449B78DAB23F4B1A703E4B00225A70314B3C4A5A60FFF713FB034665
:401D4000FB7512E02D4B02221A80384B1B78DAB2354B1A70344B00225A70284B324A5A60FFF700FB0346FB7500BF1BE0234B01221A80224B2E4A5A60FFF7F4FA0346FB7540
:401D800010E01E4B01221A80254B1B78DBB21A46284B1A44194B5A60FFF7E4FA0346FB7500E000BF1FE1174B1B78DBB2013B0A2B00F2188101A252F823F000BFCD1E0000DA
:401DC000E51F0000591F0000E51F0000E91D0000E51F0000E51F0000E51F00003D1E0000E51F0000931E0000084B1B78DAB2124B1A70FFF7D7FB0346FB75F4E03082FF1FC3
:401E000000600040016000400360004002600040606B0000986C0000086B0000E482FF1F046000404C82FF1FF881FF1F4982FF1F4782FF1FB882FF1F4682FF1F6C4B1B78D7
:401E4000BB71BB79002B06D0BB79013BDBB2184600F0C6FCB860BB79002B02D0BB68002B02D1BB79002B13D1624B1B78DBB2BA799A4208D05F4BBA791A705F4B01221A70D5
:401E8000012000F0D1F9FFF78DFB0346FB75AAE0A9E000F019FE0346002B16D0574B1B787B71574B7A791A70534B01221A7000F05DFB7B797A7953498A5CD1B2524AD1541C
:401EC000FFF770FB0346FB758DE08CE04F4B1B78DBB203F00303012B22D0012B0DD3022B00D038E0424B1B78DBB2002B04D100F049FD0346FB752EE02DE03D4B1B78DBB29E
:401F0000012B0CD1424B1B78DBB223F00203DAB23F4B1A70FFF746FB0346FB751BE01AE0364B1B78DBB2012B14D8344B1B78DBB21A463849CB5CD9B22D4B1B78DBB2DB43AD
:401F4000DBB20B40D9B2334B9954FFF72BFB0346FB75FFE700BF46E02C4B1B78DBB203F00303012B22D0012B0DD3022B00D038E01F4B1B78DBB2002B04D100F093FC0346D2
:401F8000FB752EE02DE01A4B1B78DBB2012B0CD11F4B1B78DBB243F00203DAB21C4B1A70FFF700FB0346FB751BE01AE0134B1B78DBB2012B14D8114B1B78DBB21A4615495A
:401FC000CB5CD9B20A4B1B78DBB2DB43DBB20B40D9B2104B9954FFF7E5FA0346FB75FFE700BF00E000BFFB7D18461837BD4680BD026000404782FF1F4482FF1F04600040A9
:402000003C82FF1FB882FF1F2C82FF1F006000404982FF1FBC82FF1F90B488B000AF78600023BB771F4B07F10C040FCB84E80F007B68002B32D07B6822221A707B680133C4
:4020400003221A700223FB7725E0BB7F03F1924303F580731B787B77BB7F0133BB77FB7F7A6813447A7F1209D2B207F120010A4412F8142C1A70FB7F02337A6813447A7F9B
:4020800002F00F0207F120010A4412F8142C1A70FB7F0433FB77FB7F212BD6D92037BD4690BC7047F46A000080B483B000AF0123FB710023BB7197E0BB7903F1804303F540
:4020C000C1430C221A70FA794E4913465B0013449B000B445B79DBB2002B18D0FA79494913465B0013449B000B441B79DBB2DBB25BB2002B05DABA79434B13440C221A7022
:402100000AE0BA79404B134408221A7004E0BA793D4B134480221A70BA793C4B13441946FA79384813465B0013449B00034408331B889BB21B0A9BB2DBB20B70BA79344B23
:4021400013441946FA792F4813465B0013449B00034408331B889BB2DBB20B70BA792D4B13441946FA79274813465B0013449B000344DB889BB2DBB20B70BA79264B1344BC
:402180001946FA791F4813465B0013449B000344DB889BB21B0A9BB2DBB20B70BA791F4B13441946FA79174813465B0013449B000344DB889BB2DBB20B70BA79184B134418
:4021C0001946FA790F4813465B0013449B000344DB889BB21B0A9BB2DBB20B70FB790133FB71BB791033BB71BB795BB2002BBFF663AF0C4BFF221A700C37BD465DF8047B99
:40220000704700BF4C82FF1F0E6000400C6000400D600040866000408760004084600040856000400A60004080B588B000AF0346FB7100237B830023FB7743E0FA7FA149E8
:4022400013465B0013449B000B4400221A70FA7F9C4913465B0013449B000B4400229A70FA7F984913465B0013449B000B4400225A70FA7F934913465B0013449B000B44B9
:402280000022DA70FA7F8F4913465B0013449B000B4400225A71FA7F8A4913465B0013449B000B44083300221A80FA7F854913465B0013449B000B44083300229A70FB7F2A
:4022C0000133FB77FB7F082BB8D9FB79002B10D000237B770AE07B7F7B4A0021D1547B7F7A4A0021D1547B7F01337B777B7F012BF1D9774B1B78DBB2002B00F03081744BF6
:402300001B78DBB2013BDBB2184600F069FA38613B695B68FB60FB6807331B7803F04003002B08D06B4B1B78DBB243F00103DAB2684B1A7007E0674B1B78DBB223F0010399
:40234000DAB2644B1A703B6908333B613B691B78FB7701237B77AAE03B695B687B610023BB779CE07A7F7B699B7803F07F039A4240F08F807A7F534913465B0013449B0005
:402380000B4408331B889AB27B699B889A420BD27A7F7B6999884B4813465B0013449B00034408330A461A807B691B78464AD35CDAB27B695B789A426BD17B69DB7803F086
:4023C0000303FB727B699B78DBB25BB2002B25DA7A7F3C4913465B0013449B000B4401225A70797FFB7A012B01D1072200E00D2234480B465B000B449B0003445A717B69A4
:402400009B790A2B03D07B699B79022B2BD1FB7A032B28D0304B7A7F1A7024E07A7F294913465B0013449B000B4400225A70797FFB7A012B01D1052200E0092221480B461F
:402440005B000B449B0003445A717B699B790A2B03D07B699B79022B05D1FB7A032B02D01E4B7A7F1A707A7F7B699978154813465B0013449B0003440A461A717A7F7B69B9
:40248000D978104813465B0013449B0003440A461A707B6908337B61BB7F0133BB77BA7FFB7F9A42FFF45EAF7B7F01337B777B7F082B7FF651AF3B695B687B6100237B7768
:4024C00023E000BF4C82FF1FB882FF1F2C82FF1F4782FF1F4982FF1F2182FF1F2082FF1F7B699B7803F07F027B6919781D4813465B0013449B00034408330A469A707B690E
:4025000008337B617B7F01337B777A7FFB7F9A42E6D300F0A1F90246134B1A600123FB7718E0FA7F0F4913465B0013449B000B447A8BDA80FA7F0B4913465B0013449B008C
:402540000B4408331B889AB27B8B13447B83FB7F0133FB77FB7F082BE3D9FFF7A5FD2037BD4680BD4C82FF1F4082FF1F80B584B000AF8F4B1B78DBB2002B00F015818C4B69
:402580001B78DBB2013BDBB2184600F029F978607B6808337B607B681B78FB707B685B68BB600023FB73FAE0BB681B78814AD35CDAB2BB681B788049CB5CDBB29A4200F0A9
:4025C000E880BB681B787B4AD35CDAB2BB685B789A4240F0DE80BB681A78784B1B78DBB29A4240F0D680BB689B7803F07F03BB70BB78013BDBB21B017B70BB68DB7803F0A1
:4026000003033B70BB689B78DBB25BB2002B17DABA786B4913465B0013449B000B4401225A70B9783B78012B01D1072200E00D2263480B465B000B449B0003445A7116E0D2
:40264000BA785F4913465B0013449B000B4400225A70B9783B78012B01D1052200E0092257480B465B000B449B0003445A717A78544B134401221A70BA78BB6899885048A1
:4026800013465B0013449B00034408330A461A80BA78BB6899784A4813465B0013449B0003440A461A71BA78BB68D978444813465B0013449B0003440A461A70BA78404994
:4026C00013465B0013449B000B440022DA707A783D4B13441946BA78394813465B0013449B00034408331B889BB21B0A9BB2DBB20B707A78354B13441946BA7830481346D9
:402700005B0013449B00034408331B889BB2DBB20B707A782E4B13441946BA78284813465B0013449B000344DB889BB2DBB20B707A78284B13441946BA78214813465B0000
:4027400013449B000344DB889BB21B0A9BB2DBB20B707A78204B13441946BA78184813465B0013449B000344DB889BB2DBB20B707A781A4B13441946BA78114813465B0060
:4027800013449B000344DB889BB21B0A9BB2DBB20B70BB680833BB60FB7B0133FB73FA7BFB789A42FFF400AF1037BD4680BD00BF4782FF1FB882FF1F2C82FF1F04600040CA
:4027C0004C82FF1F0E6000400C6000400D6000408660004087600040846000408560004080B485B000AF0346FB71104B1B78DBB20F4ADB0013445B68FB60FB680833FB6066
:40280000FB681B78FA799A4202D30023FB6005E0FB79DB00FA6813445B68FB60FB6818461437BD465DF8047B704700BF2982FF1F906C000080B400AF054B1B78DBB2054A35
:40284000DB0013445B681846BD465DF8047B70472982FF1F906C000080B584B000AF104B1B78DBB2013BDBB21846FFF7B9FFB860BB68002B0DD0BB685B681B79FB71FB79AD
:402880000233DB00BA681344BB60BB685B68FB6001E00023FB60FB6818461037BD4680BD4782FF1F80B582B000AF0023FB71324B1B78DBB203F07F03BB71BB79013BDBB2C5
:4028C0001B017B71BB79002B51D0BB79082B4ED8BA79B97929480B465B000B449B0003449B78DBB243F00103D9B2244813465B0013449B0003440A469A70BA791F49134607
:402900005B0013449B000B440022DA70BA79B9791A480B465B000B449B0003445B78DBB243F00203D9B2154813465B0013449B0003440A465A70BA79104913465B001344CD
:402940009B000B441B79DBB2DBB25BB2002B05DA7A790B4B13448D221A7004E07A79084B134489221A70FEF71DFE0346FB71FB7918460837BD4680BD046000404C82FF1F73
:402980000E60004080B582B000AF0023FB714A4B1B78DBB203F07F03BB71BB79013BDBB21B017B71BB79002B00F08180BB79082B7DD8BA79B97941480B465B000B449B00D9
:4029C00003449B78DBB223F00103D9B23B4813465B0013449B0003440A469A70BA79374913465B0013449B000B440022DA707A79334B13441A467979314B0B441B78DBB26B
:402A000003F07F03DBB21370BA79B9792B480B465B000B449B0003445B78DBB223F00203D9B2264813465B0013449B0003440A465A70BA79214913465B0013449B000B4452
:402A40001B79DBB2DBB25BB2002B16DABA791B4913465B0013449B000B445B78DBB2012B05D17A79174B13440C221A701BE07A79144B13440D221A7015E0BA790F491346F8
:402A80005B0013449B000B445B78DBB2012B05D17A790C4B134408221A7004E07A79094B134409221A70FEF77DFD0346FB71FB7918460837BD4680BD046000404C82FF1F87
:402AC0000C6000400E60004080B584B000AF0123FB73164B1B78BB73154B1B78DBB2013BDBB21846FFF77CFEB860BB685B681B79FB71BA7BFB799A4202D2BB7B012B02D905
:402B00000023FB730CE0BB7BBA7B0A498A5CD1B2094AD154BB7B094A1278D1B2054AD154FB7B18461037BD4680BD00BF046000404782FF1FB882FF1F2C82FF1F0260004004
:402B400080B582B000AF0023FB710F4B1B78DBB2DBB25BB2002B12DA0C4B1B78DBB2012B00D00CE00A4B0B4A5A600A4B1B781A46074B1A80FEF7F6FB0346FB7100BFFB79C0
:402B800018460837BD4680BD00600040016000403082FF1FAC6C000080B500AF282000F01FFF032000F0CAF9052000F019FF032000F0C4F90F2000F013FF032000F0BEF907
:402BC000012000F00DFF022000F0B8F9052000F007FF062000F09EF80E2000F09BF82C2000F098F8082000F095F8012000F092F80C2000F08FF8032000F08CF8052000F022
:402C0000EFFE80BD80B500AF0C2000F083F8024B01221A7080BD00BFFC81FF1F80B500AF054B1B78002B04D1FFF7B6FF024B01221A70FFF7E7FF80BDFD81FF1F80B582B0D6
:402C400000AF02460B46FA71BB71FB79032B27D801A252F823F000BF692C0000772C0000852C0000932C0000BB79803BDBB2184600F050F815E0BB79403BDBB2184600F0DC
:402C800049F80EE0BB796C3BDBB2184600F042F807E0BB792C3BDBB2184600F03BF800E000BF0837BD4680BD80B584B000AF78600123FB737B681B78BB730BE0BB7B1846A2
:402CC00000F00EF8FB7B7A6813441B78BB73FB7B0133FB73BB7B002BF0D11037BD4680BD80B584B000AF0346FB7100F02DF8FB791B09FB73FB7B184600F0E2F8FB7903F0C0
:402D00000F03FB73FB7B184600F0DAF81037BD4680BD00BF80B584B000AF0346FB7100F013F8FB791B09FB73FB7B184600F006F9FB7903F00F03FB73FB7B184600F0FEF805
:402D40001037BD4680BD00BF80B582B000AF4FF4CA737B60554B554A1278D2B202F00102D2B21A70524B1B78DBB223F01E03FB704F4BFA7842F01E02D2B21A704D4B1B7859
:402D8000DBB223F01E03FB704A4BFA781A704A4B1B78DBB223F01E03FB70474BFA781A70424B424A1278D2B222F04002D2B21A703E4B3E4A1278D2B262F07F02D2B21A70EB
:402DC000002000F02FFE394B384A1278D2B242F02002D2B21A70012000F024FE374B1B78FB70324B314A1278D2B222F02002D2B21A70002000F016FEFB7803F01003FB701D
:402E00002A4B2A4A1278D2B242F02002D2B21A70012000F007FE254B244A1278D2B222F02002D2B21A70FB78002B02D10A2000F0F9FD7B68013B7B60FB78002B02D07B6827
:402E4000002BBDD1194B194A1278D2B202F07F02D2B21A70154B154A1278D2B202F00102D2B21A70124B124A1278D2B222F01E02D2B21A700F4B1B78DBB223F01E03FB7053
:402E80000C4BFA7842F01E02D2B21A700A4B1B78DBB223F01E03FB70074BFA7842F01E02D2B21A700837BD4680BD00BF2051004022510040235100402451004021510040F4
:402EC00080B582B000AF0346FB711B4B1A4A1278D2B242F04002D2B21A70174B164A1278D2B202F07F02D2B21A70002000F09AFD114B114A1278D2B222F01E02D2B21A70B0
:402F00000D4B0D4A1278D1B2FA795200D2B20A43D2B242F02002D2B21A70012000F082FD054B054A1278D2B222F02002D2B21A700837BD4680BD00BF2051004080B582B084
:402F400000AF0346FB71154B144A1278D2B202F03F02D2B21A70114B104A1278D2B222F01E02D2B21A700D4B0C4A1278D1B2FA795200D2B20A43D2B242F02002D2B21A70A5
:402F8000012000F04FFD054B044A1278D2B222F02002D2B21A700837BD4680BD2051004080B500AF022001214FF4804241F6FF7300F064FA03461A460A4B1A700A2001219E
:402FC00041F6FF7241F6FF7300F088FA03461A46054B1A70054800F0B1FA002000F0C0FA80BD00BF0482FF1F0582FF1FF131000080B582B000AF444B1B78184600F04CFBA5
:40300000424B1B78184600F047FB414B1B78FF2B05D100F045FC03461A463D4B1A703C4B1A783B4B1B7810460A211A46062300F065FC374B1A78374B9BB2104645F6A23101
:403040001A4600F093FC304B1A78314B1B781046194600F0BFFB304B1B78FF2B05D100F01FFC03461A462C4B1A702B4B1A782A4B1B7810460A211A46072300F03FFC264B7C
:403080001978244B9AB2254B9BB2084611461A4600F06CFC1D4B1A781F4B1B781046194600F098FB184B1B781846012100F0AEFA164B1B781846012100F0A8FA00F06EFA0F
:4030C0000346FB71164B164A1278D2B242F02002D2B21A70FB79184600F064FA114B114A1278D2B242F00102D2B21A700D4B0D4A1278D2B242F00202D2B21A700A4B012249
:403100001A600837BD4680BD0482FF1F0582FF1F1881FF1F0882FF1F1981FF1FCC82FF1F966400407764004080E200E080B500AF074B1B68002B04D1FFF732FF044B0122E1
:403140001A60FFF755FF00F059F8024B1B7880BD0082FF1F6464004080B500AF00F0FCF880BD00BF80B485B000AF0346FB71084B1B78FB73FB7B002B02D1FB79002BF6D0C7
:40318000FB7B18461437BD465DF8047B704700BF6464004080B483B000AF0346FB80FB88C3F10402084B33F812309AB2074B1B889BB29BB2D31A9BB29BB21BB218460C37F4
:4031C000BD465DF8047B7047CC82FF1FDC82FF1F80B582B000AF0346FB80B7F90630184600F00AF9034618460837BD4680BD00BF80B400AFBD465DF8047B704780B500AF0E
:40320000054B1B78002B04D100F008F8024B01221A7000F019F880BD1482FF1F80B500AF074B074A1278D2B242F00602D2B21A700C2000F069F8034B00221A8080BD00BF6F
:4032400009590040D882FF1F80B582B000AF00F0A5F90346FB71244B234A1278D2B242F00202D2B21A70214B204A1278D2B242F00202D2B21A701E4B1B78BB71BB7943F0F6
:403280000203BB71BB7943F00103BB71184BBA791A70184B18221A70174B174A1278D2B242F04002D2B21A70134B134A1278D2B222F00302D2B21A70104BC8221A70104B94
:4032C00002221A700F4B0F4A1278D2B242F00802D2B21A700A2000F0A5FBFB79184600F061F90837BD4680BDAB430040BB4300400B5900400E5900400D59004008590040C2
:40330000164600402F5B004080B584B000AF0346FB71FB790A2B07D00C2B02D0082B06D008E0C223FB730BE08223FB7308E04223FB7305E0C223FB73002000F045FB00BF8D
:40334000044BFA7B1A70FB79184600F015F81037BD4680BD0A59004080B400AF054B054A1278D2B242F00102D2B21A70BD465DF8047B70470859004080B584B000AF0346A3
:40338000FB71FB790A2B08D00C2B02D0082B08D00BE04FF48053FB600DE04FF48063FB6009E04FF48073FB6005E00023FB60002000F00AFB00BF0C4B00221A80FB6842F2E7
:4033C000107202FB03F303F6C413084A82FB0312D212DB17D21A064B1A60064B00221A801037BD4680BD00BFDA82FF1FAD8BDB68E082FF1FDC82FF1F90B585B000AF034661
:40340000FB801A4B1B889BB2002B09D0174B1B889BB21AB213469B0013445B00FB6002E0134B1B68FB60FA88124B1B889BB29BB2D31A9BB2FB80B7F90630184600F008FE70
:40344000034618460C4900F057FE03461C46F86800F0FEFD03462046194600F001FF0346BB60BB6818461437BD4690BDDA82FF1FE082FF1FD882FF1F0000204180B584B05B
:4034800002AFF871B971BA807B80134B01221A70114B1978FA79BB790020009000200190084611461A46012300F0B2F90A4B1978BA887B88084611461A4600F04DF9064B18
:4034C0001B781846022100F019F9034B1B7818460837BD4680BD00BF1A81FF1F80B584B002AFF871B971BA807B80134B00221A70114B1978FA79BB7900200090002001909F
:40350000084611461A46002300F082F90A4B1978BA887B88084611461A4600F01DF9064B1B781846022100F0E9F8034B1B7818460837BD4680BD00BF1B81FF1F80B485B0EC
:4035400000AF7860054B1B68FB60FB6840337A681A601437BD465DF8047B704708ED00E080B483B000AF0346FB71054BFA795201D2B21A700C37BD465DF8047B704700BF37
:4035800000E400E0000000000230800800F0058000BF013800467FF4FCAF7047EFF3108072B6704780F31088704700BFAFF3008080B483B000AF134B7F221A70124B802273
:4035C0001A707F23FB710CE0FB79DB0003F1804303F5F043FA79013AD2B21A70FB79013BFB71FB79002BEFD1FB79DB0003F1804303F5F04300221A700C37BD465DF8047BE8
:40360000704700BF1D81FF1F1C81FF1F80B485B000AF02460B46FA71BB710123FB60FB79172B2FD8BB79002B0ED0FB791A01194B1344FA791101174A0A441278D2B242F01E
:403640002002D2B21A700DE0FB791A01114B1344FA7911010F4A0A441278D2B222F02002D2B21A70FB791A010A4B1344FA791101084A0A441278D2B242F00102D2B21A70BE
:403680000023FB60FB6818461437BD465DF8047B704700BF1070004080B485B000AF0346FB710123FB60FB79172B1DD8FB791A01114B1344FA7911010F4A0A441279D2B2FF
:4036C00042F00402D2B21A71FB791A010A4B1344FA791101084A0A441278D2B242F00102D2B21A700023FB60FB6818461437BD465DF8047B704700BF1070004080B485B0D2
:4037000000AF02460B46FA71BB710123FB60FB79172B18D8FB791A010E4B13441B78DBB223F00E03FB72FB791A010A4B1344BA7902F00702D2B25200D1B2FA7A0A43D2B28E
:403740001A700023FB60FB6818461437BD465DF8047B70471070004080B485B000AF13460246FA710A46BA807B800123FB60BA8841F6FF739A4202D14FF40053BB807A8852
:4037800041F6FF739A4202D14FF400537B80FB79172B17D8FB79DB0003F1804303F5EC430433BB60BB68BA881A80FB79DB0003F1804303F5EC430633BB60BB687A881A80BD
:4037C0000023FB60FB6818461437BD465DF8047B704700BF80B485B000AF02460B46FA71BB710123FB60FB79172B07D8FB791A01064B1344BA795A720023FB60FB68184621
:403800001437BD465DF8047B704700BF1070004080B485B000AFF871B9717A713B710123FB60FB79172B34D8FB79DB0003F1804303F5EC43BA7902F07F02D1B27A79D20191
:40384000D2B20A43D2B21A70FB79DB0003F1804303F5EC433A7E1201D1B23A7902F00F02D2B20A43D2B25A70FB79DB0003F1804303F5EC433A7F02F00F02D2B29A70FB792E
:40388000DB0003F1804303F5EC430022DA700023FB60FB6818461437BD465DF8047B704780B582B000AFFF23FB71FFF777FE0346BB71104B1B78182B12D90F4B1B78FB71D2
:4038C0000C4B1B78013BDAB20A4B1A70FB79DB0003F1804303F5F0431B78DAB2064B1A70BB791846FFF75EFEFB7918460837BD4680BD00BF1C81FF1F1D81FF1F80B485B038
:4039000000AFF871B980BA71FB700123FB60FB795BB2002B23DBBB8823F47F6323F00F039BB2002B1BD1FB79DB0003F1804303F5F043BB60BB68BA881A80FB79DB0003F124
:40394000804303F5F043BA799A70FB79DB0003F1804303F5F043FA78DA700023FB60FB6818461437BD465DF8047B704780B485B000AF13460246FA710A46BA807B8001234A
:40398000FB60FB795BB2002B17DBFB79DB0003F1804303F5F0430433BB60BB68BA881A80FB79DB0003F1804303F5F0430633BB60BB687A881A800023FB60FB6818461437BE
:4039C000BD465DF8047B704780B483B000AF0346FB7101BE0C37BD465DF8047B704700BF80B582B000AF786008E00C4B1B681846FFF7CAFD7B68A3F500437B607B68B3F530
:403A0000004FF2D8064B1B687A6802FB03F31846FFF7BAFD0837BD4680BD00BF3081FF1F2881FF1F80B582B000AF0346FB80FB88044A127802FB03F31846FFF7A5FD083788
:403A4000BD4680BD2C81FF1F80B584B000AF03463960FB710F4B1B68FB60FB791F2B02D90020FFF7B1FFFB7903F01F0310339B00FA6813441B68BB60FB7903F01F031033B4
:403A80009B00FA6813443A681A60BB6818461037BD4680BD08ED00E080B582B000AF02460B46FA71BB71BB79072B02D90020FFF78BFFFB791F2B02D90020FFF785FFFB79EB
:403AC00003F01F0303F1604303F56443BA795201D2B21A700837BD4680BD00BF80B582B000AF0023FB710023BB711C4B1B78DBB203F00303012B02D0022B04D012E0184BE1
:403B00001B78BB710EE0164B1B78DBB203F07F02144913465B0013449B000B4408339B78BB7100BF104B1A68BB7913441B78022B09D0032B02D0012B0AD00AE0FDF73AFE3B
:403B40000346FB7105E0FDF733F90346FB7100E000BFFB7918460837BD4680BD00600040046000404C82FF1F4082FF1F81F0004102E000BF83F0004330B54FEA41044FEA31
:403B8000430594EA050F08BF90EA020F1FBF54EA000C55EA020C7FEA645C7FEA655C00F0E2804FEA5454D4EB5555B8BF6D420CDD2C4480EA020281EA030382EA000083EA3E
:403BC000010180EA020281EA0303362D88BF30BD11F0004F4FEA01314FF4801C4CEA113102D0404261EB410113F0004F4FEA03334CEA133302D0524263EB430394EA050F90
:403C000000F0A780A4F10104D5F1200E0DDB02FA0EFC22FA05F2801841F1000103FA0EF2801843FA05F359410EE0A5F120050EF1200E012A03FA0EFC28BF4CF0020C43FA39
:403C400005F3C01851EBE37101F0004507D54FF0000EDCF1000C7EEB00006EEB0101B1F5801F1BD3B1F5001F0CD349085FEA30004FEA3C0C04F101044FEA445212F5800F67
:403C800080F09A80BCF1004F08BF5FEA500C50F1000041EB045141EA050130BD5FEA4C0C404141EB010111F4801FA4F10104E9D191F0000F04BF01460020B1FA81F308BF4A
:403CC0002033A3F10B03B3F120020CDA0C3208DD02F1140CC2F10C0201FA0CF021FA02F10CE002F11402D8BFC2F1200C01FA02F120FA0CFCDCBF41EA0C019040E41AA2BFAA
:403D000001EB0451294330BD6FEA04041F3C1CDA0C340EDC04F11404C4F1200220FA04F001FA02F340EA030021FA04F345EA030130BDC4F10C04C4F1200220FA02F001FA29
:403D400004F340EA0300294630BD21FA04F0294630BD94F0000F83F4801306BF81F480110134013D4EE77FEA645C18BF7FEA655C29D094EA050F08BF90EA020F05D054EA2E
:403D8000000C04BF1946104630BD91EA030F1EBF0021002030BD5FEA545C05D14000494128BF41F0004130BD14F580043CBF01F5801130BD01F0004545F0FE4141F47001CF
:403DC0004FF0000030BD7FEA645C1ABF194610467FEA655C1CBF0B46024650EA013406BF52EA033591EA030F41F4002130BD00BF90F0000F04BF0021704730B54FF48064D5
:403E000004F132044FF000054FF0000150E700BF90F0000F04BF0021704730B54FF4806404F1320410F0004548BF40424FF000013EE700BF42004FEAE2014FEA31014FEA88
:403E400002701FBF12F07F4393F07F4F81F06051704792F0000F14BF93F07F4F704730B54FF4607401F0004521F0004120E700BF50EA010208BF704730B54FF000050AE080
:403E800050EA010208BF704730B511F0004502D5404261EB41014FF4806404F132045FEA915C3FF4DCAE4FF003025FEADC0C18BF03325FEADC0C18BF033202EBDC02C2F1B4
:403EC000200300FA03FC20FA02F001FA03FE40EA0E0021FA02F11444C1E600BF80F0004002E000BF81F0004142001FBF5FEA410392EA030F7FEA226C7FEA236C6AD04FEAFA
:403F00001262D2EB1363C1BFD218414048404140B8BF5B42192B88BF704710F0004F40F4000020F07F4018BF404211F0004F41F4000121F07F4118BF494292EA030F3FD08F
:403F4000A2F1010241FA03FC10EB0C00C3F1200301FA03F100F0004302D5494260EB4000B0F5000F13D3B0F1807F06D340084FEA310102F10102FE2A51D2B1F1004F40EB61
:403F8000C25008BF20F0010040EA03007047490040EB000010F4000FA2F10102EDD1B0FA80FCACF1080CB2EB0C0200FA0CF0AABF00EBC25052421843BCBFD04018437047EE
:403FC00092F0000F81F4000106BF80F400000132013BB5E74FEA41037FEA226C18BF7FEA236C21D092EA030F04D092F0000F08BF0846704790EA010F1CBF0020704712F045
:404000007F4F04D1400028BF40F00040704712F100723CBF00F50000704700F0004343F0FE4040F4000070477FEA226216BF08467FEA23630146420206BF5FEA412390EA6E
:40404000010F40F4800070474FF0000304E000BF10F0004348BF40425FEA000C08BF704743F0964301464FF000001CE050EA010208BF70474FF000030AE000BF50EA0102D0
:4040800008BF704711F0004302D5404261EB41015FEA010C02BF84460146002043F0B64308BFA3F18053A3F50003BCFA8CF2083AA3EBC25310DB01FA02FC634400FA02FC7E
:4040C000C2F12002BCF1004F20FA02F243EB020008BF20F00100704702F1200201FA02FCC2F1200250EA4C0021FA02F243EB020008BF20EADC7070474FF0FF0C1CEAD05234
:404100001EBF1CEAD15392EA0C0F93EA0C0F6FD01A4480EA010C400218BF5FEA41211ED04FF0006343EA501043EA5111A0FB01310CF00040B1F5000F3EBF490041EAD37152
:404140005B0040EA010062F17F02FD2A1DD8B3F1004F40EBC25008BF20F00100704790F0000F0CF0004C08BF49024CEA502040EA51207F3AC2BFD2F1FF0340EAC2507047EE
:4041800040F400004FF00003013A5DDC12F1190FDCBF00F000407047C2F10002410021FA02F1C2F1200200FA02FC5FEA310040F1000053EA4C0308BF20EADC70704792F00A
:4041C000000F00F0004C02BF400010F4000F013AF9D040EA0C0093F0000F01F0004C02BF490011F4000F013BF9D041EA0C018FE70CEAD15392EA0C0F18BF93EA0C0F0AD08C
:4042000030F0004C18BF31F0004CD8D180EA010000F00040704790F0000F17BF90F0004F084691F0000F91F0004F14D092EA0C0F01D142020FD193EA0C0F03D14B0218BFF0
:40424000084608D180EA010000F0004040F0FE4040F40000704740F0FE4040F4400070474FF0FF0C1CEAD0521EBF1CEAD15392EA0C0F93EA0C0F69D0A2EB030280EA010CA0
:4042800049024FEA402037D04FF0805343EA111143EA10130CF000408B4238BF5B0042F17D024FF4000C8B4224BF5B1A40EA0C00B3EB510F24BFA3EB510340EA5C00B3EBC4
:4042C000910F24BFA3EB910340EA9C00B3EBD10F24BFA3EBD10340EADC001B0118BF5FEA1C1CE0D1FD2A3FF650AF8B4240EBC25008BF20F0010070470CF0004C4CEA502083
:404300007F32C2BFD2F1FF0340EAC250704740F400004FF00003013A37E792F0000F00F0004C02BF400010F4000F013AF9D040EA0C0093F0000F01F0004C02BF490011F4CB
:40434000000F013BF9D041EA0C0195E70CEAD15392EA0C0F08D142027FF47DAF93EA0C0F7FF470AF084676E793EA0C0F04D14B023FF44CAF08466EE730F0004C18BF31F044
:40438000004CCAD130F000427FF45CAF31F000437FF43CAF5FE700BF014B1868704700BF9481FF1F70B50E4B0E4D0024ED1AAD101E46AC4204D056F8242090470134F8E796
:4043C00002F0B8FD084D094B0024ED1AAD101E46AC4204D056F8242090470134F8E770BD406F0000406F0000486F0000406F000010B50023934203D0CC5CC4540133F9E70D
:4044000010BD02440346934202D003F8011BFAE7704700000EB400B54FF402719CB0ADF814106FF00041049107914FF6FF711DABADF81610084953F8042B02900690086810
:4044400002A9019300F084F8029B00221A701CB05DF804EB03B070479481FF1F0D4B70B51D680022845C2B195B7803F00303012B8B5C08BF2034EE18767806F00306012E37
:4044800008BF2033E41A02D10132002BEAD1204670BD00BF9881FF1F2DE9F0478D688146AB420C4692461F4643D38B8913F4906F3DD0266809690222C1EB0608666906EB0F
:4044C000460696FBF2F608F101023A44964238BF16465B050FD5314601F00AFF054698B121694246FFF784FFA38923F4906343F08003A38113E0324601F04EFF054670B951
:404500004846216901F0B0FE0C23C9F80030A3894FF0FF3043F04003A381BDE8F087256166614544C8EB06062560A6603D46AF4200D23D462A462068514601F087FBA3685E
:4045400000205B1BA36023681D442560BDE8F0872DE9F0439DB003938B8907461C060D4616460CD50B6953B9402101F0C1FE2860286110B90C233B60C7E040236B610023A8
:40458000099320238DF8293030238DF82A3033461C4613F8012B1AB9B4EB06090FD002E0252AF5D1F8E73846294632464B46FFF773FF013000F0A480099B4B4409932378B7
:4045C000002B00F09D8000234FF0FF3204930793059206938DF853301A9304F101094D4E4C4630462178052201F022FB09F10109049B28B1861B0120B04003430493EEE78A
:40460000D90644BF20228DF853201A0744BF2B228DF8532022782A2A02D0079B21460EE0039A111D12680391002A01DB079204E0524243F002030792049301340AE00C4675
:4046400022780131303A092A03D80A2000FB0323F5E7079323782E2B19D163782A2B09D1039B02341A1D1B680392002BB8BF4FF0FF330BE0611C00230C4622780131303A04
:40468000092A03D80A2000FB0323F5E70593224E21783046032201F0CBFA30B1861B4020B040049B01340343049321781B480622661C8DF8281001F0BBFA88B1184B33B9BF
:4046C000039B073323F007030833039314E003AB0093384604A92A46124B00F0B9F807E003AB0093384604A92A460E4B00F030FBB0F1FF3F804603D0099B4344099346E783
:40470000AB895B0601D4099801E04FF0FF301DB0BDE8F083D66C0000DC6C0000E06C000051480000994400002DE9F047002B88B014461D46109E1299139F05DA05F100435E
:404740001D4614462D2300E000230B70149B23F0200ABAF1460F04D0BAF1450F03D1013601E0032300E002238DE8C80006AB039307AB049322462B4600F08EFCBAF1470FB7
:40478000804602D1119BDB0725D5BAF1460F08EB06090FD198F80030302B09D1204629460022002302F0CAF810B9C6F101063E603B689944204629460022002302F0BEF8CC
:4047C00008B1CDF81C90079B4B4504D25A1C079230221A70F7E7079B4046C8EB0302159B1A6008B0BDE8F08773B50346002903F8022B03DA49421A462D2401E01A462B2475
:40480000092944701BDD0DF106040A2691FBF6F506FB1511092D01F13001234604F801192946F2DC05F1300103F8011D0DF107018B420AD213F8011B02F8011BF6E7302452
:404840001A46214402F8024B5970101A02B070BD2DE9F04F8FB00C4616461F46DDF86090054601F0D9F9D0F800A0504601F0ECFD00230C93D9F800300990073323F0070355
:4048800003F10802D3E9000194F81880C9F80020C4E9120101F0A6FD0128D4E9120117D10022002302F054F810B12D2384F84330904B914AB8F1470F8CBF914699460323A4
:4048C0002361236823F0040323604FF0000B86E001F088FD236848B9884A8949B8F1470F8CBF8946914603222261EBE7626828F0200B511C01D1062204E0BBF1470F02D11F
:404900000AB901226260606843F480618DE80300D4E912230DF12B0002900BA803900CA80590002021600690CDF810802846FFF7FBFEBBF1470F81460B9909D1C81C02DB4A
:404940006368994230DDA8F102085FFA88F802E0B8F1650F12D80139424604F150000B91FFF742FF0C9A83468318012A236102DC2268D2072DD5013323612AE0B8F1660F69
:4049800014D10029636807DD216113B92268D0071CD501330B4418E013B92268D20701D5023312E0012310E04FF067080C9A914205DB23682161D80708D54B1C05E000299A
:4049C000D4BFC1F10203012313442361A1654FF0000B9DF82B3013B12D2384F843300097284621460DAA334600F040F9013002D14FF0FF3036E123685A0504D42846314636
:404A00004A46236908E1B8F1650F40F2CB80D4E912010022002301F091FF00282AD028463146384A0123B8470130E1D00C9B0B9A9A4207DB2368D80704D423689B0700F149
:404A4000F880FDE0284631465246099BB8470130CED04FF000080C9B013B9845EDDA2846314604F11A020123B8470130C0D008F10108F0E70B9B002B28DC28463146214A4C
:404A80000123B8470130B3D00B9B23B90C9B13B92368D907D1D5284631465246099BB8470130A5D04FF000080B9B28465B429845314608DA04F11A020123B847013097D059
:404AC00008F10108F0E74A460C9BA5E0A36D0C9A9A42B4BF93469B46BBF1000F02DC4FF000081CE0284631464A465B46B8470130F5D17DE7E76C0000EB6C0000EF6C000011
:404B0000F36C0000F76C00002846314604F11A020123B84701303FF46BAF08F10108A36D2BEAEB729A1A9045EEDB09EB03080B9A0C9B9A420FDB2368DA070CD40C9B0B9A9D
:404B40009944C8EB09099B1A9945A8BF9946B9F1000F08DC0FE0284631465246099BB8470130EBD144E72846314642464B46B84701303FF43DAF4FF000080AE02846314693
:404B800004F11A020123B84701303FF431AF08F101080B9B0C9A29EAE971D31A5B1A9845ECDB4AE70C9A012A01DCDB0739D5284631464A460123B84701303FF419AF2846BB
:404BC00031465246099BB84701303FF411AFD4E912010022002301F0B1FE10B14FF0000811E00C9B2846314609F10102013B1CE02846314604F11A020123B84701303FF4F3
:404C0000F7AE08F101080C9B013B9845F0DB2846314604F150025B46B84701307FF40DAFE6E6284631464A460123B8470130EED1DEE64FF00008E2680D9BD31A984505DB1B
:404C4000E0680D9B9842B8BF18460BE02846314604F119020123B84701303FF4C9AE08F10108E8E70FB0BDE8F08F00BF2DE9F84315461F468A680B6906469A42A8BF1346E5
:404C80002B6091F843200C46DDF820800AB101332B602368990602D52B6802332B60236813F006091DD094F843302268003318BF012392061FD5E118302081F843005A1CA0
:404CC00094F845102244023382F8431013E03046394604F119020123C047013007D009F10109E2682B68D31A9945F0DBDBE74FF0FF30BDE8F8833046394604F14302C04743
:404D00000130F4D023682A6803F00603E168042B08BFC2EB01052369A2680CBF25EAE57500259A42C4BFC3EB0203ED184FF00009A9450ADA3046394604F11A020123C04722
:404D40000130D4D009F10109F2E70020BDE8F8832DE9FF470E7E80466E2E0C4691469A460C9D01F1430000F0A58011D8632E22D009D8002E00F0AF80582E40F0BF8081F8F3
:404D800045607B4A4FE0642E1ED0692E1CD0B5E0732E00F0A48009D86F2E2BD0702E40F0AD800B6843F020030B6038E0752E21D0782E34D0A2E02B6801F142071A1D1B6805
:404DC0002A6081F842309DE022682B6812F0800F03D01A1D2A601D6805E05106F9D51A1D2A60B3F90050002D39DA2D236D4284F8433034E022682B6812F0800F03D01A1D39
:404E00002A601D6804E05206F9D51A1D2A601D88237E574A6F2B14BF0A2308231BE07823544A84F845302368296813F0800F01F104062E6001D00D6802E05F06FBD50D889D
:404E4000DE0744BF43F0200323601DB9236823F0200323601023002184F8431001E0444A0A236668002EA66003DB216821F00401216005B96EB104F14201B5FBF3F603FBEC
:404E80001655555D0F4601F801593546002EF4D100E00746082B0AD12368DD0707D5626823699A4203DC302307F8013C013FC01B20612CE009682B6811F0800F626904D0BE
:404EC000191D29601B681A6005E04906F8D5191D29601B681A8000232361074617E02B681A1D2A601F68384601F0AEFA63682061984288BF23612369636005E004F14207D9
:404F000084F8426001232361002384F84330CDF800A04046214603AA4B46FFF7A7FE013002D14FF0FF301FE0404649463A462369D0470130F5D023689B0705D4E068039BE3
:404F40009842B8BF18460FE00025E268039BD31A9D42F3DA4046494604F119020123D0470130DED00135F0E704B0BDE8F08700BFF96C00000A6D00002DE9F74F03690C69F9
:404F80008046A342C0F28380013CA20001F1140700F114059146009257F824602A44019255F824200136B2FBF6F6B944002E3BD04FF0000E3A462846F34652F804CB0368CF
:404FC0001FFA8CFA4FEA1C4C0AFB06EA0CFB06FC0CEB1A4C1FFA8AFACAEB0B0B4FEA1C4E1FFA83FA1FFA8CFCDA44CCEB134C0CEB2A4C1FFA8AFA4AEA0C4A4A454FEA2C4BCD
:4050000040F804ABD9D9009AAB586BB9019A131FAB421A4602D8C8F8104005E01268043B002AF8D1013CF3E7404601F040F800282BDB01362B46002057F804CB1A681FFA0C
:405040008CF1411A1FFA82FA4FEA1C4C5144CCEB124202EB214289B210144F4541EA024243F8042BE8D955F8242005EB840362B9043BAB421A4602D8C8F8104005E01268AD
:40508000043B002AF8D1013CF3E7304600E0002003B0BDE8F08F00002DE9F04F456A9BB08246279CCDE9042345B9102000F0B8FDCAF82400456085600560C560DAF82430B0
:4050C000196861B15B6801224B6002FA03F350468B6000F00BFEDAF8243000221A600598002805DA012320F000412360059101E000232360059F9C4A27F000431B0D1B0579
:4051000093421DD1269A42F20F731360049B43B9964B974AC7F3130000280CBF1046184600E09248289F002F00F07185C37813B100F1080300E0C31C289F3B6000F067BD2C
:40514000DDE90445002220462946002301F0F6FB804658B1269F01233B60289F002F00F0538584483860013800F051BD19AB009318AB0193504622462B4601F014F8C7F3A4
:405180000A5683465EB1C5F3130343F07F51204641F44011A6F2FF36CDF854801CE0199B189E1E446FF482639E4209DB04991F3306F212409B1B21FA00F09F40384304E088
:4051C0006D48049A801B02FA00F0FEF711FE0127A1F1F871013E15970022684BFEF7CAFC5BA3D3E9002301F041F95BA3D3E90023FEF7C2FC044630460D46FEF709FE58A391
:40520000D3E9002301F032F902460B4620462946FEF7B2FC04460D4601F0C2FB2946814600222046002301F093FB58B14846FEF7EFFD02460B462046294601F07FFB08B9A5
:4052400009F1FF39B9F1160F0DD84D4B03EBC903D3E90001DDE9042301F098FB30B109F1FF39002700E00127149700E01490189B9E1B013E099604D5774208970027099715
:4052800001E000270897B9F1000F07DB099FCDF844904F44099700270E9708E0089FC9EB07070897C9F100070E9700271197249F092F29D8052FC4BF043F2497249FC8BF4C
:4052C0000025A7F10203D8BF0125032B21D8DFE803F0060F0204012702E0012709E000270F97259F002F1EDD0B9707973B461FE000270F97259F4F440B9701373B46079780
:40530000012BB8BF012313E00125002724970F9501E001270F974FF0FF370B97079700271223259704E001270B9707973B462597DAF8244000226260042101F114029A42DF
:4053400020D86268490001326260F6E7AFF3008061436F63A787D23FB3C8608B288AC63FFB799F501344D33F0000F07F256E00001C6E0000F86C0000EEFBFFFF0000F83F82
:40538000386E00005046616800F07BFCDAF824302060079F1B680E2F0A9300F26B81002D00F06881B9F1000FDDE90401CDE9120131DD814A09F00F0302EBC3034FEA29149A
:4053C000D3E90001CDE90C01E0060CD5DDE912017A4B04F00F04D3E9082301F071F90327CDE9040100E00227744D6CB1E10708D5DDE90C01D5E9002301F038F8CDE90C0156
:40540000013764100835F0E7DDE90401DDE90C2301F056F91BE0C9F10004DCB1664B04F00F0203EBC203DDE91201D3E9002301F01DF8624D241102274CB1E20704D5D5E9B5
:405440000023013701F012F864100835F4E7CDE9040100E002271499E9B1DDE90445002220462946564B01F073FAC8B1079AE2B10B9B002B40F3FA8009F1FF3010902946D7
:40548000204600224F4B00F0F1FFCDE904010B9901370C910DE0079ACDF840900C9208E0079BCDF840900C9303E00798CDF840900C903846FEF7ACFCDDE9042300F0D6FFB7
:4054C0000022414BFEF758FB0C9F0446A1F15075CFB900223D4BDDE90401FEF74BFB22462B4606460F4601F051FA002840F05382224605F100433046394601F029FA00287D
:4055000040F03F82B2E00C9F2B4B7A1E0F9F03EBC203002F5ED0D3E9002300202C4901F0CFF822462B46FEF725FBDDE90467DDF8288004460D463946304601F031FA029069
:40554000FEF766FC02460B4630463946FEF712FBDDF808C022460CF1300308F8013B2B4606460F4601F0F4F9002840F03B8332463B4600201249FEF7FDFA22462B4601F0A3
:40558000E7F9002840F0D5800A980C99C0EB08038B426BDA2046294600220A4B00F066FF002204460D4630463946064B00F05EFF06460F46BFE700BF386E0000006F000041
:4055C0000000F03F0000244000001C40000014400000E03F2246D3E900012B4600F046FFDDE90467DDF828800C9ACDE916010A9C90443946304601F0D3F90546FEF708FCED
:4056000002460B4630463946FEF7B4FA303504F8015B444506460F4621D10022874BDDE91601FEF7A9FA02460B463046394601F0ADF900287DD1DDE9162300207F49FEF780
:4056400099FA02460B463046394601F081F968B1A04618F8013C013C302BF9D0C2E20022774B00F003FF06460F46C2E7DDE91201CDE90401199B002B7CDBB9F10E0F79DC47
:40568000704B259F03EBC903002FD3E9004514DA079F002F11DC40F07681204629460022694B00F0E3FEDDE9042301F065F9079D2C46002840F0698171E1DDF82880DDE905
:4056C000046722462B463046394600F0F9FF01F067F90490FEF79CFB22462B4600F0C6FE02460B4630463946FEF744FA049F024607F130060A9F08F8016BC7EB0806079F36
:405700000B46BE4229D1FEF737FA22462B4606460F4601F03BF970B93046394622462B4601F00CF9002800F05F82049FFB0702D45AE2DDF840904346984618F8012C013B37
:40574000392A06D10A9F9F42F6D1302209F101093A701A7801321A7046E20022384B00F085FE0022002306460F4601F0E7F80028A7D039E20F9F002F30D0249F012F0ADCE9
:40578000159F17B103F2334302E0189BC3F136030E9D089E16E0079F7D1E0E9FAF4201DB7D1B06E00E9F0E95EB1B119F00251F441197079F002F03DA08980023C61B01E093
:4057C000089E079B089F50461F440897099F01211F44099700F028FB044602E00E9D089E0F9C6EB1099F002F0ADD3B46089FB342A8BF3346FF1A0897099FF61AFF1A099717
:405800000E9F002F28DD0F9F07B3002D10DD21462A46504600F0AAFB04465A462146504600F00BFB59460746504600F05FFABB460E9F7A1B10D0504659460AE00000E03FFA
:4058400000002440386E0000000014400E9A5046594600F08BFB83465046012100F0E4FA119F0546002F05DD294650463A4600F07DFB0546249F012F12DC049880B9059990
:40588000C1F3130373B921F000473F0D3F0557B1089F01370897099F01370997012702E0002700E0049F119840B12B6905EB8303186900F06CFAC0F1200000E00120099B5F
:4058C000034413F01F030FD0C3F12002042A09DD0899099AC3F11C0319441A4408911E44099209E008D01346089809991C331844194408901E440991089A002A04DD5946C7
:40590000504600F081FB8346099B002B05DD294650461A4600F078FB05461498E0B15846294600F0C4FB002816DA594650460A22002300F0F2F90F9909F1FF39834649B1CB
:4059400021460A225046002300F0E7F90B9A0446079201E00B9B07930798002829DC2499022926DD88B929460522079B504600F0D4F905462946584600F099FB00280EDCF1
:4059800003E00C9D00E000252C46259FDDF828806FEA07090AE00C9DDDF840902C460A9F312307F101083B7009F101092746002407E10F98002800F0BB80002E05DD2146F9
:4059C0005046324600F020FB04469FB16168504600F057F922690646023204F10C0192000C30FEF705FD50463146012200F00CFB074600E027460A9E29465846FFF7BCFA61
:405A0000214600F1300C80465846CDF808C000F04EFB3A4608902946504600F065FBC3680246DDF808C04BB911465846039200F03EFB039A0346DDF808C000E00123504657
:405A400011460393CDF808C000F050F9039BDDF808C063B9249951B9049800F0010232B9BCF1390F35D0089B002B24DC25E00898002802DA002B08DC1FE023D1249909BBE7
:405A8000049800F00102EAB9F4E7594601225046CDF808C000F0B8FA2946834600F007FB0028DDF808C003DC07D11CF0010F04D0BCF1390F0DD008F1310C06F1010886F836
:405AC00000C07EE0002B06F1010809DDBCF1390F03D13923337001365BE00CF1010368E00A99079AC1EB08034646934206F801CC3CD059460A220023504600F00EF9BC4248
:405B00008346214650464FF00A024FF0000304D100F003F9044607466EE700F0FEF8394604460A225046002300F0F7F8074663E70F9E58462946FFF71FFA0A9F00F1300CBC
:405B400007F806C0079F0136BE4207DB0A9E012FACBFF61901362746002407E0594650460A22002300F0D9F88346E2E7594601225046CDF808C000F047FA2946834600F08B
:405B800096FA0028DDF808C003DC14D11CF0010F11D016F8013CB046392B06F1FF3607D10A98B042F5D1312309F10109037008E00133337005E0B04618F8013C013E302B80
:405BC000F9D05046294600F091F86FB12CB1BC4203D05046214600F089F85046394600F085F801E0DDF840905046594600F07EF80023269F88F8003009F101033B60289F87
:405C000027B1C7F8008001E0024800E00A981BB0BDE8F08FF76C0000004870479C81FF1F024B0146186800F063BB00BF9481FF1F10B5C9B202449042034605D01C780130C5
:405C40008C42F8D1184610BD002010BD814270B501D300230EE08C18A042FAD28518134613F1FF3305D351426618F65C2944CE54F6E770BD934203D0CC5CC4540133F9E75A
:405C800070BD70B5456A04460E463DB91020FFF7C7FF6062456085600560C560656AEB6843B1636ADA6852F8260078B1016842F8261017E020460421212200F0C6FA636AB4
:405CC000E860DB68002BECD1002070BD012101FA06F56A1D2046920000F0B7FA0028F3D04660856000220261C26070BD70B5446A06460D463CB91020FFF792FF70624460CE
:405D000084600460C4603DB1736A6A68DB6853F82210296043F8225070BD2DE9F0410C461E460D69074614310023086801331FFA80FC000C02FB0C6C504300EB1C401FFA62
:405D40008CFC060CAB420CEB004041F8040BECDBD6B1A3689D4212DB616838460131FFF790FF226904F10C010232804692000C30FEF73EFB21463846FFF7B8FF444604EB6C
:405D8000850301355E6125612046BDE8F081030C1B0413B90004102300E0002310F07F4F04BF0002083310F0704F04BF0001043310F0404F04BF80000233002803DB420059
:405DC00003D5581C70471846704720207047036813F007020BD0D90722D49A0703D55B080360012070479B0803600220704799B209B91B0C102213F0FF0F04BF1B0A0832DD
:405E0000190704BF1B090432990704BF9B080232D90702D45B0805D00132036010467047002070472020704710B50C460121FFF728FF01224461026110BD2DE9F04F16468D
:405E400033690A6985B09A420D4601DA35460E46D5F810803769AB68696808EB07049C42C8BF0131FFF70DFF00F1140303EB840101911A46DDF804A0524503D2002142F8E0
:405E8000041BF7E705F1140106F1140201EB880802EB8707CDF808800397039E1546B24256D2B5F800C00432BCF1000F25D00F461D46002657F8049BD5F800801FFA89FBCD
:405EC0001FFA88FA0CFB0BAA4FEA19494FEA18480CFB0988B24408EB1A481FFA8AFA4AEA084A4FEA1846DDF80880AB46B8454BF804AB01D95D46DDE76E6032F8028CB8F1CD
:405F0000000F23D01E680F461D464FF00009B7F800A0B5F802C0B6B208FB0ACCE14446EA0946AC464CF8046B57F8046BB5F804A0360C08FB06A6DDF808A006EB1946574528
:405F40004FEA164901D26546E1E76E600433A4E7019B002C03DC046105B0BDE8F08F53F8042D002AF7D1013CF3E7000012F003032DE9F04105460E46174607D0214A013B80
:405F800052F823200023FFF7C8FE0646BF1035D06C6A3CB91020FFF743FE6862446084600460C460D5F82480D8F808407CB9284640F27121FFF738FF0023C8F808000446F7
:405FC000036004E07F1019D0206870B10446FB07F8D5314622462846FFF72FFF314680462846FFF783FE4646ECE7284621462246FFF723FF002320600360E7E73046BDE8EA
:40600000F08100BF286F00002DE9F0470C4623694FEA621A0AEB03094968A3688046154609F101079F4202DD01315B00FAE74046FFF727FE0023064600F11402534504DA1E
:40604000002142F823100133F8E720692AEAEA7104F1140315F01F0C02EB810103EB800E16D0CCF1200A002518680A4600FA0CF0054342F8045B53F8045B734525FA0AF547
:4060800001D21146F0E74D6045B109F1020705E053F8042B734541F8042BF9D3013F404637612146FFF722FE3046BDE8F08702690B6910B5D21A13D19C00143001F1140225
:4060C0000319224453F8044D52F8041D8C4203D008D24FF0FF3010BD9842F3D3002010BD104610BD012010BD2DE9F04706460C46084611461546FFF7DAFF071E08D1304695
:406100003946FFF7BEFD012303614761BDE8F08701DB002703E0234601272C461D4661683046FFF7AEFD22692B69143405F1140606EB830AC76004EB820C00F114030021F5
:4061400054F8047B56F8049B1FFA87F81FFA89F541444FEA1949C5EB0108C9EB174707EB28471FFA88F83914B24548EA0747254643F8047BE4D865450DD255F8044BA6B231
:406180000E44240C04EB2644B6B2211446EA044443F8044BEFE753F8041D09B9013AFAE70261BDE8F0872DE9F74301211D46DDF82890DDF82C801446FFF763FDC5F30A571A
:4061C0000646C5F313030FB143F480130193D4B102A840F8084D6846FFF7F9FD009B48B1019AC0F1200102FA01F1C2400B437361019200E07361019B002B0CBF01240224DA
:40620000B361346107E001A8FFF7E1FD019B01247361346120303FB1A7F233470744C9F80070C0F135000AE0A0F2324006EB8403C9F800001869FFF7AAFDC0EB4410C8F86E
:406240000000304603B0BDE8F08338B502FB01F4214600F04DF8054618B100212246FEF7D0F8284638BD000030B500293CD051F8042C0B1F1D49002AB8BF9B180A680C466A
:4062800012B95A600B6030BD93420DD219685818904203D15A581144426819605A60236030BD994203D80A4651680029F9D1146815199D420AD11B682344D018884213603D
:4062C00012D10868034413604B680CE002D90C23036030BD18681C188C4203D10C684968204418605960536030BD00BF1C82FF1F70B5CD1C25F0030508350C2D38BF0C25A4
:40630000002D06463FDB8D423DD3214B1C6818462146A1B10B685B1B0ED40B2B03D90B60CC18CD501FE08C4202D1626802601AE04B6863600C4616E00C464968E9E7154CE3
:4063400023681BB9304600F06FF820602946304600F06AF8431C014615D0C41C24F0030484420AD1256004F10B00231D20F00700C31A0BD05A42E25070BD3046611A00F0A3
:4063800053F80130EED10C233360002070BD00BF1C82FF1F1882FF1FF8B5064614460D4621B91146BDE8F840FFF7A2BF1AB9FFF75BFF2046F8BD00F04FF8A0420ED23046A8
:4063C0002146FFF795FF074650B129462246FEF70FF830462946FFF747FF01E02846F8BD3846F8BD31F0004310B500D178B10C4AA3F5801494420CD9B3F5801F0BD3094A5B
:4064000093420AD1D0F1010038BF002010BD022010BD042010BD032010BD002010BD00BFFFFFDF7F0000F07F38B5064C0023054608462360F9F736FF431C02D1236803B1AB
:406440002B6038BD0883FF1F034613F8012B002AFBD1181A0138704751F8040C002802DA04390B58184404387047000070B54FF0FF0C4CF4E06C1CEA11541DBF1CEA13555F
:4064800094EA0C0F95EA0C0F00F0DEF82C4481EA030621EA4C5123EA4C5350EA013518BF52EA033541F4801143F4801338D0A0FB02CE4FF00005E1FB02E506F00042E0FBD3
:4064C00003E54FF00006E1FB03569CF0000F18BF4EF0010EA4F1FF04B6F5007F64F5407404D25FEA4E0E6D4146EB060642EAC62141EA55514FEAC52040EA5E504FEACE2E37
:40650000B4F1FD0C88BFBCF5E06F1ED8BEF1004F08BF5FEA500E50F1000041EB045170BD06F0004646EA010140EA020081EA0301B4EB5C04C2BFD4EB0C0541EA045170BD0F
:4065400041F480114FF0000E013C00F3AB8014F1360FDEBF002001F0004170BDC4F10004203C35DA0C341BDC04F11404C4F1200500FA05F320FA04F001FA05F240EA0200E7
:4065800001F0004221F0004110EBD37021FA04F642EB06015EEA430E08BF20EAD37070BDC4F10C04C4F1200500FA04F320FA05F001FA04F240EA020001F0004110EBD370C9
:4065C00041F100015EEA430E08BF20EAD37070BDC4F1200500FA05F24EEA020E20FA04F301FA05F243EA020321FA04F001F0004121FA04F220EA020000EBD3705EEA430E21
:4066000008BF20EAD37070BD94F0000F0FD101F00046400041EB010111F4801F08BF013CF7D041EA060195F0000F18BF704703F00046520043EB030313F4801F08BF013DD4
:40664000F7D043EA0603704794EA0C0F0CEA135518BF95EA0C0F0CD050EA410618BF52EA4306D1D181EA030101F000414FF0000070BD50EA410606BF1046194652EA430616
:4066800019D094EA0C0F02D150EA013613D195EA0C0F05D152EA03361CBF104619460AD181EA030101F0004141F0FE4141F470014FF0000070BD41F0FE4141F4780170BD72
:4066C00070B54FF0FF0C4CF4E06C1CEA11541DBF1CEA135594EA0C0F95EA0C0F00F0A7F8A4EB050481EA030E52EA03354FEA013100F088804FEA03334FF0805545EA131365
:4067000043EA12634FEA022245EA111545EA10654FEA00260EF000419D4208BF964244F1FD0404F5407402D25B084FEA3202B61A65EB03055B084FEA32024FF480104FF4B0
:40674000002CB6EB020E75EB030E22BFB61A754640EA0C005B084FEA3202B6EB020E75EB030E22BFB61A754640EA5C005B084FEA3202B6EB020E75EB030E22BFB61A7546E7
:4067800040EA9C005B084FEA3202B6EB020E75EB030E22BFB61A754640EADC0055EA060E18D04FEA051545EA16754FEA06164FEAC30343EA52734FEAC2025FEA1C1CC0D112
:4067C00011F4801F0BD141EA00014FF000004FF0004CB6E711F4801F04BF01430020B4F1FD0C88BFBCF5E06F3FF6AFAEB5EB030C04BFB6EB020C5FEA500C50F1000041EB01
:40680000045170BD0EF0004E4EEA113114EB5C04C2BFD4EB0C0541EA045170BD41F480114FF0000E013C90E645EA060E8DE60CEA135594EA0C0F08BF95EA0C0F3FF43BAFC2
:4068400094EA0C0F0AD150EA01347FF434AF95EA0C0F7FF425AF104619462CE795EA0C0F06D152EA03353FF4FDAE1046194622E750EA410618BF52EA43067FF4C5AE50EAB8
:4068800041047FF40DAF52EA43057FF4EBAE12E74FF0FF3C06E000BF4FF0010C02E000BF4FF0010C4DF804CD4FEA410C7FEA6C5C4FEA430C18BF7FEA6C5C1BD001B050EA50
:4068C000410C0CBF52EA430C91EA030F02BF90EA020F0020704710F1000F91EA030F58BF994208BF90422CBFD8176FEAE37040F0010070474FEA410C7FEA6C5C02D150EAEB
:40690000013C07D14FEA430C7FEA6C5CD6D152EA033CD3D05DF8040B704700BF8446104662468C461946634600E000BF01B5FFF7B7FF002848BF10F1000F01BD4DF808ED10
:40694000FFF7F4FF0CBF012000205DF808FB00BF4DF808EDFFF7EAFF34BF012000205DF808FB00BF4DF808EDFFF7E0FF94BF012000205DF808FB00BF4DF808EDFFF7CEFFF0
:4069800094BF012000205DF808FB00BF4DF808EDFFF7C4FF34BF012000205DF808FB00BF4FEA410212F5001215D211D56FF47873B3EB625212D94FEAC12343F0004343EA41
:4069C000505311F0004F23FA02F018BF404270474FF00000704750EA013005D111F0004008BF6FF0004070474FF00000704700BF00000000000000000D0A312E2048656C8C
:406A0000700D0A322E205072696E74204144430D0A202020202020202050726573732045534320746F2073746F7020636F6E76657273696F6E730D0A332E20536F6D6574D9
:406A400068696E67330A0D0068656C7000000000310000005072696E7420414443000000320000000A0D25302E3466762C202564000000000A0D53746F707065640A0D0099
:406A80000A0D4E6F742061207265636F676E697A656420636F6D6D616E642C20706C6561736520757365202768656C702720746F2073656520636F6D6D616E64732E0A0D63
:406AC00000000000005100402000405100403000C0510040100000000140001000140140000800400140000A004C014000020050014020003031323334353637383941427A
:406B000043444546000000001201000202000008B40432F2010001048001000009024300020101C032090400000102020002052400100104240202052406000105240100A9
:406B4000010705810308000A09040100020A0000030705820240000A0705030240000A00040309042C0343007900700072006500730073002000530065006D0069006300E3
:406B80006F006E0064007500630074006F0072003803430044004300200043006F006D006D0075006E00690063006100740069006F006E00200049006E00740065007200CA
:406BC0006600610063006500260343004400430020004400610074006100200049006E0074006500720066006100630065001003550053004200550041005200540000008F
:406C000002030000320005010902A1010901A100050919012903150025019503750181029501750581010501093009311581257F750895028106C0C00000000000008103BB
:406C4000080002000100820240000A000100030240000A00020A0000010000001C6B0000030000003C6C00000000000000000000000000000000000000000000546C0000EC
:406C800001000000086B000001000000586C000001000000806C000012034D0053004600540031003000300001000000280000000001040001000000000000000001435902
:406CC00055534200000030303030310000000000000000004300232D302B2000686C4C0065666745464700494E4600696E66004E414E006E616E00300030313233343536BE
:406D000037383941424344454600303132333435363738396162636465660000202020202020202020282828282820202020202020202020202020202020202088101010D4
:406D400010101010101010101010101004040404040404040404101010101010104141414141410101010101010101010101010101010101010101101010101010424242FB
:406D80004242420202020202020202020202020202020202020202101010102000000000000000000000000000000000000000000000000000000000000000000000000085
:406DC0000000000000000000000000000000000000000000000000000000000000000000000000000000000000000000000000000000000000000000000000000000000093
:406E000000000000000000000000000000000000000000000000000000000000496E66696E697479004E614E00504F534958002E0000000000000000000000000000F03F1B
:406E4000000000000000244000000000000059400000000000408F40000000000088C34000000000006AF8400000000080842E4100000000D01263410000000084D79741AD
:406E80000000000065CDCD41000000205FA00242000000E876483742000000A2941A6D42000040E59C30A2420000901EC4BCD64200003426F56B0C430080E03779C3414396
:406EC00000A0D8855734764300C84E676DC1AB43003D9160E458E143408CB5781DAF154450EFE2D6E41A4B4492D54D06CFF08044F64AE1C7022DB544B49DD9794378EA44AF
:406F00000080E03779C34143176E05B5B5B89346F5F93FE9034F384D321D30F94877825A3CBF737FDD4F157505000000190000007D000000F8B500BFF8BC08BC9E467047B8
:406F40004D00000091030000F8B500BFF8BC08BC9E46704729000000686F00000881FF1FD000000038010000000000001083FF1F00C2010000000800FFFFFFFF807F00008A
:406F8000030000000090D00300FA0000400000000000007D0000000000000000000000000000000000000000000000000000000000000000D46C0000000000000000000074
:406FC000000000000000000000000000000000000000000000000000000000000000000000000000000000000000000000000000000000003481FF1F1B6D00002F6E000099
:40700000DB6C0000DB6C0000DB6C0000DB6C0000DB6C0000DB6C0000DB6C0000DB6C0000DB6C0000FFFFFFFFFFFFFFFFFFFFFFFFFFFF0000000000000000000000000000DF
:407040000000000000000000000000000000000000000000000000000000000000000000000000000000000000000000000000000000000000000000000000000000000010
:4070800000000000000000000000000000000000000000000000000000000000000000000000000000000000000000000000000000000000000000000000000000000000D0
:4070C0000000000000000000000000000000000000000000000000000000000000000000000000000000000000000000000000000000000000000000000000000000000090
:40710000000000000000000000000000000000000000000000000000000000000000000000000000000000000000000000000000000000000000000000000000000000004F
:020000040003F7
:0200000480007A
:400000000145004003520040015B0040016400401900014024010140160201402D0301400A04014032050140300601403D07014001090140010B0140010F014006140140D3
:400040002A1501401B1601403D170140021B01400E4001400C410140094201400A430140024401400345014005460140074701400A48014011490140044C0140034D0140E9
:4000800009500140025101407E02185019447C402F8486040102030109010B0215032103270329032D0333013702580459045F018601880192019C01A201A401A801B2018A
