:400000000080002011000000D5020000D502000080B500AF47F2BC63C4F2000344F2FA62C4F2000212681A6000F058F910B5054C237833B9044810B10448AFF300800121B3
:40004000217010BD5085FF1F000000001425000008B5064B1BB106480649AFF300800648016811B1054A02B1904708BD00000000142500005485FF1F0881FF1F000000006F
:4000800090B5ADF6D43D00AF00F0D8FC01F090F801F0AAF800F076FC01F034FE01F0B4FF01F0C4FD01F072FF62B64FF0000387F8C33B4FF00A03A7F8C03B4FF000004FF050
:4000C000000100F0D1FC42F21850C0F2000000F007FD00E000BF48F28653C1F6FF731B78DBB2012B40F0AB80B7F8C03B87F8C53B93E04FF00003A7F8BE3B4FF00003A7F827
:40010000CE3B4FF00003A7F8CC3B4FF00003A7F8CA3B4FF00003A7F8C83B4FF00003A7F8C63B97F8C53B87F8C43B3CE097F8C52B07F6641333F81220B7F8CE3BD318A7F867
:40014000CE3B97F8C52B07F20C7333F81220B7F8CC3BD318A7F8CC3B97F8C52B07F2B44333F81220B7F8CA3BD318A7F8CA3B97F8C52B07F5177333F81220B7F8C83BD318CD
:40018000A7F8C83B97F8C52B07F1040333F81220B7F8C63BD318A7F8C63B97F8C43B03F1010387F8C43B97F8C42B97F8C53BD218B7F8C01B97F8C53BCB189A42B6DBB7F874
:4001C000CE2BB7F8C03BB2FBF3F3A7F8CE3BB7F8CC2BB7F8C03BB2FBF3F3A7F8CC3BB7F8CA2BB7F8C03BB2FBF3F3A7F8CA3BB7F8C82BB7F8C03BB2FBF3F3A7F8C83BB7F8E3
:40020000C62BB7F8C03BB2FBF3F3A7F8C63B97F8C53B03F1010387F8C53B97F8C52B97F8C33B9A42FFF465AF4FF001004FF0000100F01AFCB7F8CE3B184600F04FFE4FF0E3
:40024000000000F0D7FF0346002B3FF443AF97F8C34B4FF0000000F0E5FF03469AB207F6641323F8142097F8C34B4FF0010000F0D9FF03469AB207F20C7323F8142097F887
:40028000C34B4FF0020000F0CDFF03469AB207F2B44323F8142097F8C34B4FF0030000F0C1FF03469AB207F5177323F8142097F8C34B4FF0040000F0B5FF03469AB207F155
:4002C000040323F8142097F8C33B03F1010387F8C33BFFE680B400AFFEE700BF80B586B000AF40F20103C0F200037B6142F6D033C0F200033B6140F20103C0F200037B6106
:4003000042F6D033C0F200033B613BE03B691B68FB603B695B68BB603B699B683B604FF000037B600FE0FB681A68BB681A60BB6803F10403BB60FB6803F10403FB607B686D
:4003400003F104037B607A683B689A42EBD13B69DB683B604FF000037B600BE0BB684FF000021A60BB6803F10403BB607B6803F104037B607A683B689A42EFD13B6903F177
:4003800010033B617B69002B0CBF00230123DBB27A6902F1FF327A61002BB7D101F01CFFFFF76EFEFEE700BF80B582B000AF4EF60C53CEF200034FF48062C0F2FA521A6020
:4003C0004EF61453CEF200034EF61452CEF20002126842F400721A604FF000037B6019E07B68032B07D840F20003C0F200037A6853F8223003E040F2D523C0F2000348F21C
:400400000002C1F6FF72796842F821307B6803F101037B607B682F2BE2D947F2BC63C4F200031B78DAB248F20413C1F6FF731A704EF60853CEF2000348F20002C1F6FF727E
:400440001A6000F09FF901F017F948F20013C1F6FF734FF000021A6007F10807BD4680BD80B582B000AF7860396078684FF000013A6801F0A9FF07F10807BD4680BD00BF19
:4004800080B584B000AFF860B9607A60F868B9687A6801F0EBFE07F11007BD4680BD00BF80B483B000AF0346FB71FEE780B487B000AF786039604FF000033B614FF0000333
:4004C0007B612CE07B694FEA83037A68D3181B68BB60BB68FB73BB6823F0FF03BB6017E03B694FEA43033A68D3181B781A46BB68D3183A694FEA420239688A1852781A70C3
:400500003B6903F101033B61FB7B03F1FF33FB73FB7B002BE4D17B6903F101037B617B69212BCFD907F11C07BD4680BC704700BF80B582B000AF4FF48143C4F200034FF0AE
:400540000C021A8044F28203C4F200034FF018021A7044F28403C4F2000340F6B7321A8044F28603C4F200034FF019021A704FF48643C4F200034FF002021A704FF04023BD
:400580004FF008021A704FF48443C4F200034FF003021A7044F2A163C4F200034FF48472C4F600121278D2B21A7044F22223C4F200034FF008021A8044F22023C4F20003FE
:4005C00041F251221A804FF00003FB704FF019037B6019E0FB784FEA4303DAB244F22523C4F200031B78DBB203F00103DBB21343DBB203F00303FB704FF4F07001F028F88B
:400600007B6803F1FF337B607B68002B02D0FB78032BDFD17B68002B03D14FF00300FFF73FFF44F20403C4F200034FF480721A8044F20403C4F200034FF007021A7044F28A
:400640000603C4F200034FF000021A7044F20803C4F200034FF048021A7044F20403C4F200034FF000021A7044F20103C4F200034FF002021A7044F2A233C4F2000344F265
:40068000A232C4F200021278D2B242F00302D2B21A7007F10807BD4680BD00BF80B483B000AF40F2CF13C4F600131B78FB7144F2F863C4F200031B78BB7144F2F963C4F20E
:4006C00000031B787B7145F66E03C4F20003FA7902F00702D2B21A7045F66F03C4F20003FA794FEA1212D2B21A7044F2F863C4F20003BA7942F00302D2B21A7044F2F963FF
:40070000C4F200037A7942F00302D2B21A7045F23D13C4F200034FF07C021A7045F60913C4F200034FF040021A7045F60B13C4F200034FF040021A7045F62833C4F20003BA
:400740004FF0F0021A7045F62B33C4F200034FF020021A7044F2F963C4F200037A791A7044F2F863C4F20003BA791A7045F67603C4F200034FF044021A7007F10C07BD4628
:4007800080BC704780B582B000AF72B644F2E863C4F2000344F2E862C4F200021278D2B242F00402D2B21A704FF00003FB7119E0FA7913464FEA43039B184FEA430342F2EA
:4007C0002852C0F200029B183B603B681A683B689B889BB210461946FFF742FEFB7903F10103FB71FB79082BE2D94FF090404FF08801C4F60001FFF759FE4FF4EC40C4F21C
:4008000000004FF00401FFF72BFE47F20860C4F200004FF4B661C4F600014FF00402FFF72FFE47F21060C4F2000040F2B451C4F600014FF00402FFF723FE45F20303C4F2E1
:40084000010345F20302C4F201021278D2B242F00202D2B21A7045F21303C4F2010345F21302C4F201021278D2B242F00202D2B21A7044F2A033C4F2000344F2A032C4F24F
:4008800000021278D2B242F04002D2B21A7044F2C233C4F2000344F2C232C4F200021278D2B242F01002D2B21A7045F20210C4F2000040F28C51C4F600014FF00802FFF778
:4008C000DFFD45F22210C4F2000040F29451C4F600014FF00802FFF7D3FD45F23210C4F2000040F29C51C4F600014FF00802FFF7C7FD45F26010C4F2000040F2A451C4F6D2
:4009000000014FF00A02FFF7BBFD44F22233C4F2000344F22232C4F200021278D2B242F00802D2B21A704FF49043C4F200034FF001021A70FFF7FCFD4FF49043C4F2000386
:400940004FF081021A704FF00403C4F208034FF001021A70FFF7A2FE44F2B030C4F2000044F2A031C4F200014FF00E02FFF788FD07F10807BD4680BD80B500AF01F0B0F8AA
:4009800080BD00BF80B500AFFFF7F6FF80BD00BF80B500AF4FF0280001F0D0F84FF0030000F054FA4FF0050001F0C8F84FF0030000F04CFA4FF00F0001F0C0F84FF0030046
:4009C00000F044FA4FF0010001F0B8F84FF0020000F03CFA4FF0050001F0B0F84FF0060000F0BAF84FF00E0000F0B6F84FF02C0000F0B2F84FF0080000F0AEF84FF00100B0
:400A000000F0AAF84FF00C0000F0A6F84FF0030000F0A2F84FF0050001F090F880BD00BF80B500AF4FF00C0000F096F848F26C53C1F6FF734FF001021A7080BD80B500AF0A
:400A400048F26D53C1F6FF731B78002B08D1FFF79FFF48F26D53C1F6FF734FF001021A70FFF7DEFF80BD00BF80B582B000AF02460B46FA71BB71FB79032B2BD801A252F892
:400A800023F000BF950A0000A50A0000B50A0000C50A0000BB79A3F18003DBB2184600F05BF818E0BB79A3F14003DBB2184600F053F810E0BB79A3F16C03DBB2184600F0E4
:400AC0004BF808E0BB79A3F12C03DBB2184600F043F800E000BF07F10807BD4680BD00BF80B584B000AF78604FF00103FB737B681B78BB730CE0BB7B184600F011F8FB7BE5
:400B00007A68D3181B78BB73FB7B03F10103FB73BB7B002BEFD107F11007BD4680BD00BF80B584B000AF0346FB7100F031F8FB794FEA1313FB73FB7B184600F02DF9FB7997
:400B400003F00F03FB73FB7B184600F025F907F11007BD4680BD00BF80B584B000AF0346FB7100F015F8FB794FEA1313FB73FB7B184600F06BF9FB7903F00F03FB73FB7B82
:400B8000184600F063F907F11007BD4680BD00BF80B582B000AF45F22013C4F2000345F22012C4F200021278D2B222F07F02D2B21A7045F22213C4F200031B78DBB223F01C
:400BC0000F03FB7145F22213C4F20003FA7942F00F02D2B21A7045F22313C4F200031B78DBB223F00F03FB7145F22313C4F20003FA791A7045F22413C4F200031B78DBB24D
:400C000023F00F03FB7145F22413C4F20003FA791A7045F22013C4F2000345F22012C4F200021278D2B222F02002D2B21A7045F22013C4F2000345F22012C4F2000212789D
:400C4000D2B242F04002D2B21A704FF0000000F099FF45F22013C4F2000345F22012C4F200021278D2B242F01002D2B21A704FF0010000F087FF45F22113C4F200031B7896
:400C8000FB7145F22013C4F2000345F22012C4F200021278D2B222F01002D2B21A704FF0000000F06FFFFB7903F00803FB7145F22013C4F2000345F22012C4F200021278FB
:400CC000D2B242F01002D2B21A704FF0010000F059FF45F22013C4F2000345F22012C4F200021278D2B222F01002D2B21A70FB79002BAAD145F22013C4F2000345F220126C
:400D0000C4F200021278D2B222F04002D2B21A7045F22013C4F2000345F22012C4F200021278D2B222F07F02D2B21A7045F22213C4F2000345F22212C4F200021278D2B242
:400D400022F00F02D2B21A7045F22313C4F200031B78DBB223F00F03FB7145F22313C4F20003FA7942F00F02D2B21A7045F22413C4F200031B78DBB223F00F03FB7145F272
:400D80002413C4F20003FA7942F00F02D2B21A7007F10807BD4680BD80B582B000AF0346FB7145F22013C4F2000345F22012C4F200021278D2B242F02002D2B21A7045F282
:400DC0002013C4F2000345F22012C4F200021278D2B222F04002D2B21A704FF0000000F0D1FE45F22013C4F2000345F22012C4F200021278D2B222F00F02D2B21A7045F2BE
:400E00002013C4F2000345F22012C4F200021278D1B2FA790A43D2B242F01002D2B21A704FF0010000F0AEFE45F22013C4F2000345F22012C4F200021278D2B222F01002B0
:400E4000D2B21A7007F10807BD4680BD80B582B000AF0346FB7145F22013C4F2000345F22012C4F200021278D2B222F06002D2B21A7045F22013C4F2000345F22012C4F23C
:400E800000021278D2B222F00F02D2B21A7045F22013C4F2000345F22012C4F200021278D1B2FA790A43D2B242F01002D2B21A704FF0010000F066FE45F22013C4F2000353
:400EC00045F22012C4F200021278D2B222F01002D2B21A7007F10807BD4680BD80B586B000AF78604FF00A03FB75FB7D07F11801CB184FF0000203F8102CFB7D03F1FF331A
:400F0000FB7528E079684CF6CD43CCF6CC43A3FB01234FEAD30213464FEA83039B184FEA4303CA1AD3B203F13003BB75FB7D07F11801CB18BA7D03F8102C7A684CF6CD434D
:400F4000CCF6CC43A3FB02134FEAD3037B60FB7D03F1FF33FB757B68092BD3D879684CF6CD43CCF6CC43A3FB01234FEAD30213464FEA83039B184FEA4303CA1AD3B203F1B8
:400F80003003BB75FB7D07F11801CB18BA7D03F8102CFB7D07F10802D3181846FFF7A0FD07F11807BD4680BD80B500AF00F0EAFC03461A4648F28253C1F6FF731A7048F2E8
:400FC0008253C1F6FF731A7848F28253C1F6FF731B7810464FF00A011A464FF0060300F00DFD48F28253C1F6FF731A7848F27053C1F6FF739BB2104645F6A2311A4600F063
:401000003BFD48F28053C1F6FF731A7848F28253C1F6FF731B781046194600F03FFC80BD80B500AF00F0AEFC03461A4648F28353C1F6FF731A7048F28353C1F6FF731A7813
:4010400048F28353C1F6FF731B7810464FF00A011A464FF0070300F0D1FC48F28353C1F6FF73197848F27053C1F6FF739AB248F28C53C1F6FF739BB2084611461A4600F0DE
:40108000FBFC48F28153C1F6FF731A7848F28353C1F6FF731B781046194600F0FFFB80BD80B500AF4FF002004FF001014FF4804241F6FF7300F01EFA03461A4648F28053F6
:4010C000C1F6FF731A704FF00A004FF0010141F6FF7241F6FF7300F04FFA03461A4648F28153C1F6FF731A7041F26520C0F2000000F084FA4FF0000000F094FA80BD00BF2E
:4011000080B582B000AFFFF78BFFFFF74DFF48F28053C1F6FF731B7818464FF0010100F0E3FA48F28153C1F6FF731B7818464FF0010100F0D9FA00F095FA0346FB7146F20A
:401140009643C4F2000346F29642C4F200021278D2B242F02002D2B21A70FB79184600F085FA46F27453C4F2000346F27452C4F200021278D2B242F00102D2B21A7046F26D
:401180007453C4F2000346F27452C4F200021278D2B242F00202D2B21A704EF28023CEF200034FF001021A6007F10807BD4680BD80B500AF48F27C53C1F6FF731B68002B3A
:4011C00008D1FFF76DFF48F27C53C1F6FF734FF001021A60FFF794FF00F04AF846F26453C4F200031B7880BD80B500AF00F024F980BD00BF80B485B000AF0346FB7146F2A1
:401200006453C4F200031B78FB73FB7B002B02D1FB79002BF3D0FB7B184607F11407BD4680BC704780B483B000AF0346FB80FB88C3F1040248F28C53C1F6FF7333F81230C4
:401240009AB248F29C53C1F6FF731B889BB29BB2D31A9BB29BB21BB2184607F10C07BD4680BC704780B400AFBD4680BC704700BF80B500AF48F28453C1F6FF731B78002B6C
:4012800008D100F00BF848F28453C1F6FF734FF001021A7000F01EF880BD00BF80B500AF45F60913C4F2000345F60912C4F200021278D2B242F00602D2B21A704FF00C00B7
:4012C00000F08AF848F29853C1F6FF734FF000021A8080BD80B582B000AF00F0C3F90346FB7144F2AB33C4F2000344F2AB32C4F200021278D2B242F00202D2B21A7044F27F
:40130000BB33C4F2000344F2BB32C4F200021278D2B242F00202D2B21A7045F60B13C4F200031B78BB71BB7943F00203BB71BB7943F00103BB7145F60B13C4F20003BA7994
:401340001A7045F60E13C4F200034FF018021A7045F60D13C4F2000345F60D12C4F200021278D2B242F04002D2B21A7045F60D13C4F2000345F60D12C4F200021278D2B201
:4013800022F02002D2B21A7045F60813C4F200034FF0C8021A7044F21663C4F200034FF002021A7045F62F33C4F2000345F62F32C4F200021278D2B242F00802D2B21A7012
:4013C0004FF00A0000F0DEFBFB79184600F04EF907F10807BD4680BD80B584B000AF0346FB71FB790A2B08D00C2B02D0082B08D00BE04FF0C403FB730FE04FF08403FB73A7
:401400000BE04FF04403FB7307E04FF0C403FB734FF0000000F086FB00BF45F60A13C4F20003FA7B1A70FB79184600F019F807F11007BD4680BD00BF80B400AF45F60813D9
:40144000C4F2000345F60812C4F200021278D2B242F00102D2B21A70BD4680BC704700BF80B584B000AF0346FB71FB790A2B08D00C2B02D0082B08D00BE04FF48053FB60E2
:401480000FE04FF48063FB600BE04FF48073FB6007E04FF00003FB604FF0000000F042FB00BF48F29A53C1F6FF734FF000021A80FB6842F2107202FB03F303F6C41248F64D
:4014C000AD33C6F6DB0383FB02134FEAE3214FEAE273CA1A48F2A053C1F6FF731A6048F29C53C1F6FF734FF000021A8007F11007BD4680BD80B584B002AFF871B971BA80FD
:401500007B8048F20C13C1F6FF734FF002021A7048F20C13C1F6FF731978FA79BB794FF0000000904FF000000190084611461A464FF0020300F0D4F948F20C13C1F6FF7380
:401540001978BA887B88084611461A4600F062F948F20C13C1F6FF731B7818464FF0020100F020F948F20C13C1F6FF731B78184607F10807BD4680BD80B584B002AFF8714A
:40158000B971BA807B8048F20D13C1F6FF734FF001021A7048F20D13C1F6FF731978FA79BB794FF0000000904FF000000190084611461A464FF0010300F092F948F20D1306
:4015C000C1F6FF731978BA887B88084611461A4600F020F948F20D13C1F6FF731B7818464FF0020100F0DEF848F20D13C1F6FF731B78184607F10807BD4680BD80B485B03E
:4016000000AF78604EF60853CEF200031B68FB60FB6803F140037A681A6007F11407BD4680BC704780B483B000AF0346FB714FF46443CEF20003FA794FEA4212D2B21A705E
:4016400007F10C07BD4680BC704700BF000000000230800800F0058000BF013800467FF4FCAF7047EFF3108072B6704780F31088704700BFAFF3008080B483B000AF48F224
:401680001113C1F6FF734FF07F021A7048F21013C1F6FF734FF080021A704FF07F03FB710FE0FB794FEAC30303F1804303F5F043FA7902F1FF32D2B21A70FB7903F1FF3312
:4016C000FB71FB79002BECD1FB794FEAC30303F1804303F5F0434FF000021A7007F10C07BD4680BC704700BF80B485B000AF02460B46FA71BB714FF00103FB60FB79172BA6
:4017000048D8BB79002B16D0FB794FEA031247F21003C4F20003D318FA794FEA021147F21002C4F200028A181278D2B242F02002D2B21A7015E0FB794FEA031247F21003BB
:40174000C4F20003D318FA794FEA021147F21002C4F200028A181278D2B222F02002D2B21A70FB794FEA031247F21003C4F20003D318FA794FEA021147F21002C4F200029D
:401780008A181278D2B242F00102D2B21A704FF00003FB60FB68184607F11407BD4680BC704700BF80B485B000AF02460B46FA71BB714FF00103FB60FB79172B22D8FB7906
:4017C0004FEA031247F21003C4F20003D3181B78DBB223F00E03FB72FB794FEA031247F21003C4F20003D318BA7902F00702D2B24FEA4202D1B2FA7A0A43D2B21A704FF088
:401800000003FB60FB68184607F11407BD4680BC704700BF80B485B000AF13460246FA710A46BA807B804FF00103FB60BA8841F6FF739A4202D14FF40053BB807A8841F6D6
:40184000FF739A4202D14FF400537B80FB79172B1CD8FB794FEAC30303F1804303F5EC4303F10403BB60BB68BA881A80FB794FEAC30303F1804303F5EC4303F10603BB603D
:40188000BB687A881A804FF00003FB60FB68184607F11407BD4680BC704700BF80B485B000AF02460B46FA71BB714FF00103FB60FB79172B0CD8FB794FEA031247F21003B5
:4018C000C4F20003D318BA795A724FF00003FB60FB68184607F11407BD4680BC704700BF80B485B000AFF871B9717A713B714FF00103FB60FB79172B3CD8FB794FEAC30302
:4019000003F1804303F5EC43BA7902F07F02D1B27A794FEAC212D2B20A43D2B21A70FB794FEAC30303F1804303F5EC433A7E4FEA0212D1B23A7902F00F02D2B20A43D2B2DD
:401940005A70FB794FEAC30303F1804303F5EC433A7F02F00F02D2B29A70FB794FEAC30303F1804303F5EC434FF00002DA704FF00003FB60FB68184607F11407BD4680BC76
:40198000704700BF80B582B000AF4FF0FF03FB71FFF768FE0346BB7148F21013C1F6FF731B78182B20D948F21113C1F6FF731B78FB7148F21013C1F6FF731B7803F1FF3303
:4019C000DAB248F21013C1F6FF731A70FB794FEAC30303F1804303F5F0431B78DAB248F21113C1F6FF731A70BB791846FFF73EFEFB79184607F10807BD4680BD80B485B080
:401A000000AFF871B980BA71FB704FF00103FB60FB795BB2002B27DBBB8823F47F6323F00F039BB2002B1FD1FB794FEAC30303F1804303F5F043BB60BB68BA881A80FB79C7
:401A40004FEAC30303F1804303F5F043BA799A70FB794FEAC30303F1804303F5F043FA78DA704FF00003FB60FB68184607F11407BD4680BC704700BF80B485B000AF1346A0
:401A80000246FA710A46BA807B804FF00103FB60FB795BB2002B1CDBFB794FEAC30303F1804303F5F04303F10403BB60BB68BA881A80FB794FEAC30303F1804303F5F043EE
:401AC00003F10603BB60BB687A881A804FF00003FB60FB68184607F11407BD4680BC704780B400AF44F2AC33C4F2000344F2AC32C4F200021278D2B242F01002D2B21A70CB
:401B000044F2BC33C4F2000344F2BC32C4F200021278D2B242F01002D2B21A70BD4680BC704700BF80B483B000AF0346FB7101BE07F10C07BD4680BC704700BF80B582B025
:401B400000AF78600BE048F22413C1F6FF731B681846FFF77DFD7B68A3F500437B607B68B3F5004FEFD848F21C13C1F6FF731B687A6802FB03F31846FFF76AFD07F1080722
:401B8000BD4680BD80B582B000AF0346FB80FA8848F22013C1F6FF731B7803FB02F31846FFF756FD07F10807BD4680BD80B582B000AF4FF0180000F06BF84FF0180000F078
:401BC00083F8FFF74FFD0346FB7146F29753C4F2000346F29752C4F200021278D2B242F01002D2B21A70FB791846FFF73FFD00F07BF84FF0010000F02FF807F10807BD4697
:401C000080BD00BF80B400AF46F27653C4F2000346F27652C4F200021278D2B262F07F02D2B21A70BD4680BC704700BF80B500AF48F28553C1F6FF731B78002B08D1FFF703
:401C4000B5FF48F28553C1F6FF734FF001021A70FFF7D8FF80BD00BF80B483B000AF0346FB7146F28753C4F20003FA791A7007F10C07BD4680BC704780B400AF46F2675377
:401C8000C4F200031B78DBB21846BD4680BC704780B483B000AF0346FB8046F64C23C4F20003FA881A8007F10C07BD4680BC704780B400AF46F68C23C4F200031B889BB225
:401CC0001846BD4680BC704780B483B000AF0346FB8046F60C23C4F20003FA881A8007F10C07BD4680BC704780B500AF01E0FFF7DFFFFFF7C1FF034603F00803002BF6D1ED
:401D000080BD00BF80B500AF00F04EF841F62950C0F2000000F014F84FF0070000F024F800F036F880BD00BF80B500AFFFF7A4FF48F28653C1F6FF734FF001021A7080BD01
:401D400080B485B000AF78604EF60853CEF200031B68FB60FB6803F144037A681A6007F11407BD4680BC704780B483B000AF0346FB714EF20143CEF20003FA794FEA42121E
:401D8000D2B21A7007F10C07BD4680BC704700BF80B400AF4FF46143CEF200034FF002021A60BD4680BC704780B400AF4EF28013CEF200034FF002021A60BD4680BC7047E9
:401DC000F8B500AF44F2A633C4F2000344F2A632C4F200021278D2B242F01002D2B21A704CF28073C4F200034CF28072C4F200021278D2B222F00102D2B21A704CF288735D
:401E0000C4F200034FF03F021A704CF28C73C4F200034FF03F021A704FF44442C4F2000242F26053C0F2000311461A464FF48073084611461A4600F019FA4FF44542C4F24D
:401E4000000242F26053C0F2000311461A464FF48073084611461A4600F008FA4FF44642C4F2000242F6A023C0F2000311461A464FF48073084611461A4600F0F7F94FF498
:401E80004042C4F2000242F26063C0F2000311461A464FF40073084611461A4600F0E6F94FF44242C4F2000242F66003C0F2000311461A464FF40073084611461A4600F0CA
:401EC000D5F94FF44742C4F2000242F66023C0F20003104603F1400402461946D1F800E04E688D68C968C2F800E056609560D16003F1100300F11000A342EDD14CF28C7308
:401F0000C4F200034FF000021A704FF0010000F053F84FF0000000F063F84CF28473C4F200034FF0F8021A70F8BD00BF80B400AF44F2A633C4F2000344F2A632C4F2000282
:401F40001278D2B242F01002D2B21A7044F2B633C4F2000344F2B632C4F200021278D2B242F01002D2B21A704CF28073C4F200034CF28072C4F200021278D2B242F00102DE
:401F8000D2B21A70BD4680BC704700BF80B500AF48F28753C1F6FF731B78002B08D1FFF70FFF48F28753C1F6FF734FF001021A70FFF7BCFF80BD00BF80B483B000AF03468D
:401FC000FB71FB7903F01F03FB714CF29873C4F20003FA791A7007F10C07BD4680BC704780B483B000AF0346FB71FB7903F00F03FB714CF29C73C4F20003FA791A7007F1D5
:402000000C07BD4680BC704780B500AF00F05AF842F22D00C0F2000000F020F84FF0070000F030F800F042F880BD00BF80B400AF4CF28473C4F200031B784CF28473C4F283
:4020400000034FF0F8021A7048F28853C1F6FF734FF001021A70BD4680BC704780B485B000AF78604EF60853CEF200031B68FB60FB6803F1B0037A681A6007F11407BD46EE
:4020800080BC704780B483B000AF0346FB714EF21C43CEF20003FA794FEA4212D2B21A7007F10C07BD4680BC704700BF80B400AF4FF46143CEF200034FF080521A60BD4617
:4020C00080BC704780B400AF4EF28013CEF200034FF080521A60BD4680BC70472DE9F041274C84B025680746D5F84841002C41D066681F2E1CDD234810B94FF0FF301FE0E3
:402100004FF4C870039102920193AFF3008003990446029A019B0028EFD0D5F84861002060602660C5F84841C4F88801C4F88C01656847B9A81C013544F820106560002079
:4021400004B0BDE8F081012000FA05F0D4F8886104EB85080643022FC8F88820C4F88861C8F80831E6D1D4F88C3143EA0002C4F88C21DFE705F5A674C5F84841B8E700BF7E
:40218000A42B000000000000114B124A70B5981A831018D0591E02EB83040D4654F8042D01F00106904775B126B154F8040D8047013D08D054F8043D9847013D54F8041D6E
:4021C0008847013DF6D1BDE8704000F0F9BC00BFD02B0000CC2B0000F8B5204F204C381B871017D07A1E2368012502F001069847AF420FD02EB154F8041F02258847AF42E1
:4022000008D0606880470235A268261D90470834AF42F6D1134F144C00F0C6FC3B1B9F1018D07D1E216805F0010601258847AF4211D02EB154F8040F02258047AF420BD0A8
:40224000626890470235A368261D98470834AF42F6D1F8BDF8BDF8BDF8BD00BFB42B0000B42B0000C02B0000B42B00000F2A2DE9F00340F2A18041EA00039B0740F09E8097
:402280000C68A2F1100504604B68AC4643608C68BCF10F0F8460CC68C5F30015C46000F1100301F110042BD975B12568ACF1100C1D6065685D60A5689D60E5681034DD6035
:4022C0001033BCF10F0F1BD9276804F110061F60676803F110055F60A768ACF1200C9F60E768DF6024691C61776806F110046F60B7682033AF60F668BCF10F0FEE60E3D851
:40230000A2F1100828F00F0302F00F0403F1100C032C00EB0C0301EB0C0851D9211F4FEA9109444608EB890C54F8046BC8EB0C010CF1040C1D46644545F8046BC1F38001C6
:4023400012D029B154F8041B644545F8041B0BD0274657F8041B2E4646F8041B64686C603C1D351D6445F3D109F1010C4FEA8C0902F0030208EB09014B44D2B10D789A18E8
:40238000DC4303F8015B1419934204F0010410D02CB111F8014F03F8014B934209D04D781C4604F8015B8D7802315D70631C9342F5D1BDE8F00370470346DEE70346DDE799
:4023C00041462246D9E700BFF0B48407034600F08D80541E002A00F08780E507CEB211D41A4602F8016B13461546920710D0621E002C79D003F8016B14469A071D4607D092
:40240000013CEDE7034603F8016B9A071D46F7D1032C52D9CEB246EA06270F2C47EA07432DD9A4F1100217460F2FC2F300162B606B60AB60EB6005F1100216D93EB1103F2E
:40244000136053609360D36010320F2F0DD9203F02F11006136053609360D360136153619361D36120320F2FF1D8A4F1100222F00F0204F00F041032032C15441DD9271F76
:402480003E462A46032E42F8043BC7F380070DD927B1043E032E42F8043B07D9174647F8043B083E53603A1D032EF7D8231F23F00302131D04F00304ED18ACB1C9B2EA43F9
:4024C0002C1905F8011BA318A54203F001020BD01AB105F8011BA54206D02B4603F8011B69705D1CA542F8D1F0BC7047054614468EE700BF024B13B1024800F005B87047E5
:4025000000000000892100000146002002460346FFF7E4BD000000005468726F74746C652031204156473A00105100401000405100402000C05100401000F05100401000EF
:4025400000000140001000140140000800400140000A004C014000020050014020000000201300256117802601008026E00E8026C20C8026020080066587186D6409183E01
:4025800000008026032080262102187F00000000000000000000000000000000000000000000000000000000000000000000000000000000000000000000000000000000F2
:4025C00000000000000000000000000000000000000000000000000000000000000000000000000000000000000000000000000000000000000000000000000000000000DB
:40260000000000000000000000000000000000000000000000000000000000000000000000000000000000000000000000000000000000000000000000000000000000009A
:40264000000000000000000000000000000000000000000000000000000000000000000000000000000000000000000000000000000000000000000000000000000000005A
:40268000000000000000000000000000000000000000000000000000000000000000000000000000000000000000000000000000000000000000000000000000000000001A
:4026C00000000000000000000000000000000000000000000000000000000000000000000000000000000000000000000000000000000000000000000000000000000000DA
:402700000000000000000000000000000000000000000000000000000000000000000000000000000000000000000000000000000000000000000000000000000000000099
:402740000000000000000000000000000000000000000000000000000000000000000000000000000000000000000000000000000000000000000000000000000000000059
:402780000000000000000000000000000000000000000000000000000000000000000000000000000000000000000000000000000000000000000000000000000000000019
:4027C00000000000000000000000000000000000000000000000000000000000000000000000000000000000000000000000000000000000000000000000000000000000D9
:402800000000000000000000000000000000000000000000000000000000000000000000000000000000000000000000000000000000000000000000000000000000000098
:4028400000000000000000000000000000000000000000000000000000000000000000004E4D0000938E0000DD0801009AAB01009F5E0200250603008B870300F6CD030068
:40288000F6CD03008B870300250603009F5E02009AAB0100DD080100938E00004E4D0000000000000000000000000000000000000000000000000000000000000000000028
:4028C00000000000000000000000000000000000000000000000000000000000000000000000000000000000000000000000000000000000000000000000000000000000D8
:402900000000000000000000000000000000000000000000000000000000000000000000000000000000000000000000000000000000000000000000000000000000000097
:402940000000000000000000000000000000000000000000000000000000000000000000000000000000000000000000000000000000000000000000000000000000000057
:402980000000000000000000000000000000000000000000000000000000000000000000000000000000000000000000000000000000000000000000000000000000000017
:4029C00000000000000000000000000000000000000000000000000000000000000000000000000000000000000000000000000000000000000000000000000000000000D7
:402A00000000000000000000000000000000000000000000000000000000000000000000000000000000000000000000000000000000000000000000000000000000000096
:402A400000000000000000000000000000000000000000000000000000000000000000008F07000000000000000000000000000000000000000000000000000000000000C0
:402A8000000000000000000000000000000000000000000000000000000000000000000021F805014210864064F8150181F8050143518E21000000000000000000000000AB
:402AC00000000000000000000000000000000000000000000000000000000000000000000000000000000000000000000000000000000000000000000000000000000000D6
:402B00000000000000000000000000000000000000000000000000000000000000000000000000000000000000000000000000000000000000000000000000000000000095
:402B40000000000000000000000000000000000000000000000000000000000000000000000000000000000000000000000000000000000000000000000000000000000055
:402B80000000000000000000000000000000000000000000000000000000000000000000430000002881FF1FF8B500BFF8BC08BC9E467047F524000051000000A903000076
:402BC000F8B500BFF8BC08BC9E4670472D000000E02B00000881FF1F480400005800000000000000FFFF0000807F00000700000000366E01C05D0000180000000000E02EE7
:402C0000000000001484FF1F7C84FF1FE484FF1F000000000000000000000000000000000000000000000000000000000000000000000000A02B000000000000000000006F
:402C40000000000000000000000000000000000000000000000000000000000000000000000000000000000000000000000000000000000000000000000000000000000054
:402C80000000000000000000000000000000000000000000000000000000000000000000000000000000000001000000000000000E33CDAB34126DE6ECDE05000B000000E7
:402CC00000000000000000000000000000000000000000000000000000000000000000000000000000000000000000000000000000000000000000000000000000000000D4
:402D00000000000000000000000000000000000000000000000000000000000000000000000000000000000000000000000000000000000000000000000000000000000093
:402D40000000000000000000000000000000000000000000000000000000000000000000000000000000000000000000000000000000000000000000000000000000000053
:402D80000000000000000000000000000000000000000000000000000000000000000000000000000000000000000000000000000000000000000000000000000000000013
:020000040003F7
:0200000480007A
:4000000004520040015B00400164004001650040060001401B010140080201402A030140180401403E0501401F0601403B0701400608014027090140030B01403214014086
:400040003F150140361601403D17014007190140031B01400A4001400B41014004420140034301400245014005460140014701400748014015490140054C01400A4D0140ED
:4000800008500140025101400002186C194834022F848604870D580459045F01D804D904DF01000402400404064009220A040B830D220F111201131016022A432B412E0470
:4000C0002F41312038243B923C043F92C03CC2FBC483CAD9CC04CEFF27013101580459045F01D804D904DF010004024004240520064809200A100B030D200E100F0111100B
:400100001202174024802502260227402ACA2D342E022F013120361238843B023C043E809308942497029E42A008A522A808AF04C07CC2E7C483CAFBCCA4CE5B58045904D4
:400140005F0180018A018C089210940498029E04A202A301A608AB04AF02B01FB104B502B701B802BE01D804D904DF010005048405200641074809200B020D220E111001D1
:4001800011021201132014021504168017211E401F03240125612610274028022A022B022D202E812F20312033203401372038243A413C043D023E5045404602800182105F
:4001C00084209080930894249504961097029E42A008A520A610C0FCC2F3C4FBCAF9CCA4CEFFE001E202E88002010440068008200A100E080F011080124016021702181050
:400200001A201C042002240128082E0430FF330135023E0156025724580459045B045F01D804D904DF01001003420480076408040B010C060D200E2111A0160217191D021C
:4002400024342534272028042A022B022E022F02312033403610374438103B013D683F0165206C026D446E016F1477098B028C048E088F40908093089424950496019A02EB
:400280009B409F29A028A140A210A302A502C0FBC2F5C4F3CA9DCC7CCEF5D820580459045F01D804D904DF010001018003100401068007100A090C200E010F2010201102B8
:4002C0001440162028402A082C202F4230203101344038213B803EA88A018B408C108D818E288F109A80C03DC2E3C43CCAD3CC15CE7DE010E4C08280E202E880060807025A
:400300000A010E0411011801230126042A02300331033203340C350337033E10520353025401580459045B045C095F018003810789018B068C039403950597029C029D07C2
:400340009E01A107A203A401A602A803A907AF07B002B102B401B504B701D804D904DF01001801400602074009200C040F011028151016401704181019211E041F01212368
:40038000224024012622280429012A402B022C042E022F023102321833443608374039103B193F115A80680469408212850186048A228C018F01931998049A029B409D2082
:4003C0009E40A028A208A302C097C2A2C476CABDCC5FCEA7D608E270E630E810EE08404149FF4AFF4BFF4F0150185280580459045A045B045D115F01604062406440654003
:40040000668068806A806C806E809201AE01B601BE40C041C5ECC602C807C9FFCAFFCBFFCD83CE03CF01D018D401D604D804D904DA04DB04DD11DF01E040E240E440E54038
:40044000E680E880EA80EC80EE800208034204100602074008040B810D200F01104213101404164019402A222C442E022F02300433423608374038043B013C103E203F11BA
:400480004180428045804680490551805340594563407402768087409014930998049A029B409D20A028A120A208A302B210B450B701C0DBC2CDC45BCAB5CC5BCEA3D099D9
:4004C000D60BD801B040B204B420B501B712E880EC50E210E810EE08120414401704322036403A043F42C460CC30CEE0010257109740A660A701AB04AC40C010D440E88015
:40050000EC109740A660A711B1029740A660A7112380C802878098209B80B020E8019820240886409740A660A711C820E640568059085E846610863087408A448D088E8018
:400540008F109740A620A710AF01B404D440D6E0D880E240E640EE101F8034029820C601CC01181078208C109820AF80B402C608DE02E208E808000108010A010C011003E1
:4005800011011A031B01000F102A00000102020002000000007F7F000000000000000000007C7C000200000A08000000000000000001000000020000000000000000000093
:4005C00000000000000000000000000000000000000000000000000000000000000000000000000000000000000000000000000000000000000000000000000000000000FB
:4006000000000000000000000000000000000000000000000000000000000000000000000000000000000000000000000000000000000000000000000000000000000000BA
:40064000000000000000000000000000000000000000000000000000000000000000000000000000000000000000000000000000000000000000000000000000000000007A
:40068000000000000000000000000000000000000000000000000000000000000000000000000000000000000000000000000000000000000000000000000000000000003A
:0200000490006A
:0400000000004005B7
:0200000490105A
:04000000BC90ACAF55
:0200000490303A
:02000000B18FBE
:0200000490402A
:4000000000000000000000000000000000000000000000000000000000000000000000000000000000000000000000000000000000000000000000000000000000000000C0
:400040000000000000000000000000000000000000000000000000000000000000000000000000000000000000000000000000000000000000000000000000000000000080
:400080000000000000000000000000000000000000000000000000000000000000000000000000000000000000000000000000000000000000000000000000000000000040
:4000C0000000000000000000000000000000000000000000000000000000000000000000000000000000000000000000000000000000000000000000000000000000000000
:0200000490501A
:0C00000000012E12306900012E24E1F8EE
:00000001FF