:4000000000800020110000001D0300001D03000080B500AF47F2BC63C4F2000344F2FA62C4F2000212681A6000F07CF910B5054C237833B9044810B10448AFF300800121FD
:40004000217010BD5085FF1F000000005C28000008B5064B1BB106480649AFF300800648016811B1054A02B1904708BD000000005C2800005485FF1F0881FF1F00000000D9
:4000800080B588B000AF00F0F1FC01F0A9F801F0C3F800F08FFC01F04DFE01F0DFFD62B64FF000037B604FF00003FB614FF00003BB614FF000037B614FF000033B614FF019
:4000C0000003FB604FF00003BB6000E000BF48F28653C1F6FF731B78DBB2012B40F0E880FA69BB68B2FBF3F3184602F043F90346184602F015F802460B46104619464FF0AE
:4001000000024FF00003C3F6E07301F0ABFE02460B461046194602F057F803467B60BA69BB68B2FBF3F3184602F024F90346184601F0F6FF02460B46104619464FF00002C0
:400140004FF00003C3F6E07301F08CFE02460B461046194602F038F80346BB617A69BB68B2FBF3F3184602F005F90346184601F0D7FF02460B46104619464FF000024FF0BE
:400180000003C3F6E07301F06DFE02460B461046194602F019F803467B613A69BB68B2FBF3F3184602F0E6F80346184601F0B8FF02460B46104619464FF000024FF00003B7
:4001C000C3F6E07301F04EFE02460B461046194601F0FAFF03463B61FA68BB68B2FBF3F3184602F0C7F80346184601F099FF02460B46104619464FF000024FF00003C3F6B8
:40020000E07301F02FFE02460B461046194601F0DBFF0346FB6001F00DFE03466FEA0303DBB2184601F0E4FD4FF0010000F0ACFC4FF000004FF0000100F02EFCBB689BB24E
:40024000184600F063FE4FF001004FF0000100F023FCFB699BB2184600F058FE4FF000004FF0070100F018FC7B689BB2184600F04DFE4FF00003BB6048F28653C1F6FF73FF
:400280004FF000021A704FF000037B604FF00003FB614FF00003BB614FF000037B614FF000033B614FF00003FB604FF00003BB604FF0000000F0B6FF0346002B3FF406AF24
:4002C0004FF0000000F0C6FF0346FA69D318FB614FF0010000F0BEFF0346BA69D318BB614FF0020000F0B6FF03467A69D3187B614FF0030000F0AEFF03463A69D3183B618C
:400300004FF0040000F0A6FF0346FA68D318FB60BB6803F10103BB60D8E600BF80B400AFFEE700BF80B586B000AF40F20103C0F200037B6142F6C803C0F200033B6140F253
:400340000103C0F200037B6142F6C803C0F200033B613BE03B691B68FB603B695B68BB603B699B683B604FF000037B600FE0FB681A68BB681A60BB6803F10403BB60FB6809
:4003800003F10403FB607B6803F104037B607A683B689A42EBD13B69DB683B604FF000037B600BE0BB684FF000021A60BB6803F10403BB607B6803F104037B607A683B6832
:4003C0009A42EFD13B6903F110033B617B69002B0CBF00230123DBB27A6902F1FF327A61002BB7D102F09CF8FFF74AFEFEE700BF80B582B000AF4EF60C53CEF200034FF4B0
:400400008062C0F2FA521A604EF61453CEF200034EF61452CEF20002126842F400721A604FF000037B6019E07B68032B07D840F20003C0F200037A6853F8223003E040F268
:400440001D33C0F2000348F20002C1F6FF72796842F821307B6803F101037B607B682F2BE2D947F2BC63C4F200031B78DAB248F20413C1F6FF731A704EF60853CEF2000363
:4004800048F20002C1F6FF721A6000F09FF901F00BF948F20013C1F6FF734FF000021A6007F10807BD4680BD80B582B000AF7860396078684FF000013A6802F029F907F114
:4004C0000807BD4680BD00BF80B584B000AFF860B9607A60F868B9687A6802F06BF807F11007BD4680BD00BF80B483B000AF0346FB71FEE780B487B000AF786039604FF04B
:4005000000033B614FF000037B612CE07B694FEA83037A68D3181B68BB60BB68FB73BB6823F0FF03BB6017E03B694FEA43033A68D3181B781A46BB68D3183A694FEA420238
:4005400039688A1852781A703B6903F101033B61FB7B03F1FF33FB73FB7B002BE4D17B6903F101037B617B691F2BCFD907F11C07BD4680BC704700BF80B582B000AF4FF495
:400580008143C4F200034FF00C021A8044F28203C4F200034FF018021A7044F28403C4F2000340F6B7321A8044F28603C4F200034FF019021A704FF48643C4F200034FF0F1
:4005C00002021A704FF040234FF008021A704FF48443C4F200034FF003021A7044F2A163C4F200034FF48472C4F600121278D2B21A7044F22223C4F200034FF008021A80C0
:4006000044F22023C4F2000341F251221A804FF00003FB704FF019037B6019E0FB784FEA4303DAB244F22523C4F200031B78DBB203F00103DBB21343DBB203F00303FB70CC
:400640004FF4F07001F01CF87B6803F1FF337B607B68002B02D0FB78032BDFD17B68002B03D14FF00300FFF73FFF44F20403C4F200034FF480721A8044F20403C4F20003AA
:400680004FF007021A7044F20603C4F200034FF000021A7044F20803C4F200034FF048021A7044F20403C4F200034FF000021A7044F20103C4F200034FF002021A7044F2E1
:4006C000A233C4F2000344F2A232C4F200021278D2B242F00302D2B21A7007F10807BD4680BD00BF80B483B000AF40F2CF13C4F600131B78FB7144F2F863C4F200031B787E
:40070000BB7144F2F963C4F200031B787B7145F66E03C4F20003FA7902F00702D2B21A7045F66F03C4F20003FA794FEA1212D2B21A7044F2F863C4F20003BA7942F00302EA
:40074000D2B21A7044F2F963C4F200037A7942F00302D2B21A7045F23D13C4F200034FF07C021A7045F60913C4F200034FF040021A7045F60B13C4F200034FF040021A7029
:4007800045F62833C4F200034FF0F0021A7045F62B33C4F200034FF020021A7044F2F963C4F200037A791A7044F2F863C4F20003BA791A7045F67603C4F200034FF0440231
:4007C0001A7007F10C07BD4680BC704780B582B000AF72B644F2E863C4F2000344F2E862C4F200021278D2B242F00402D2B21A704FF00003FB7119E0FA7913464FEA430378
:400800009B184FEA430342F66002C0F200029B183B603B681A683B689B889BB210461946FFF742FEFB7903F10103FB71FB79082BE2D94FF090404FF08001C4F60001FFF70D
:4008400059FE4FF4EC40C4F200004FF00401FFF72BFE47F20860C4F2000040F28451C4F600014FF00402FFF72FFE45F20303C4F2010345F20302C4F201021278D2B242F0EC
:400880000202D2B21A7045F21303C4F2010345F21302C4F201021278D2B242F00202D2B21A7044F2A033C4F2000344F2A032C4F200021278D2B242F04002D2B21A7044F280
:4008C000C233C4F2000344F2C232C4F200021278D2B242F01002D2B21A7045F20210C4F200004FF4AC61C4F600014FF00802FFF7EBFD45F22210C4F200004FF4AD61C4F6AD
:4009000000014FF00802FFF7DFFD45F23210C4F200004FF4AE61C4F600014FF00802FFF7D3FD45F26010C4F200004FF4AF61C4F600014FF00A02FFF7C7FD44F22233C4F29F
:40094000000344F22232C4F200021278D2B242F00802D2B21A704FF49043C4F200034FF001021A70FFF708FE4FF49043C4F200034FF081021A704FF00403C4F208034FF0E2
:4009800001021A70FFF7AEFE44F2B030C4F2000044F2A031C4F200014FF00E02FFF794FD07F10807BD4680BD80B500AF01F0B0F880BD00BF80B500AFFFF7F6FF80BD00BF1D
:4009C00080B500AF4FF0280001F0D0F84FF0030000F054FA4FF0050001F0C8F84FF0030000F04CFA4FF00F0001F0C0F84FF0030000F044FA4FF0010001F0B8F84FF002007D
:400A000000F03CFA4FF0050001F0B0F84FF0060000F0BAF84FF00E0000F0B6F84FF02C0000F0B2F84FF0080000F0AEF84FF0010000F0AAF84FF00C0000F0A6F84FF0030012
:400A400000F0A2F84FF0050001F090F880BD00BF80B500AF4FF00C0000F096F848F26C53C1F6FF734FF001021A7080BD80B500AF48F26D53C1F6FF731B78002B08D1FFF7C7
:400A80009FFF48F26D53C1F6FF734FF001021A70FFF7DEFF80BD00BF80B582B000AF02460B46FA71BB71FB79032B2BD801A252F823F000BFC50A0000D50A0000E50A000093
:400AC000F50A0000BB79A3F18003DBB2184600F05BF818E0BB79A3F14003DBB2184600F053F810E0BB79A3F16C03DBB2184600F04BF808E0BB79A3F12C03DBB2184600F056
:400B000043F800E000BF07F10807BD4680BD00BF80B584B000AF78604FF00103FB737B681B78BB730CE0BB7B184600F011F8FB7B7A68D3181B78BB73FB7B03F10103FB7337
:400B4000BB7B002BEFD107F11007BD4680BD00BF80B584B000AF0346FB7100F031F8FB794FEA1313FB73FB7B184600F02DF9FB7903F00F03FB73FB7B184600F025F907F174
:400B80001007BD4680BD00BF80B584B000AF0346FB7100F015F8FB794FEA1313FB73FB7B184600F06BF9FB7903F00F03FB73FB7B184600F063F907F11007BD4680BD00BFD7
:400BC00080B582B000AF45F22013C4F2000345F22012C4F200021278D2B222F07F02D2B21A7045F22213C4F200031B78DBB223F00F03FB7145F22213C4F20003FA7942F04C
:400C00000F02D2B21A7045F22313C4F200031B78DBB223F00F03FB7145F22313C4F20003FA791A7045F22413C4F200031B78DBB223F00F03FB7145F22413C4F20003FA7929
:400C40001A7045F22013C4F2000345F22012C4F200021278D2B222F02002D2B21A7045F22013C4F2000345F22012C4F200021278D2B242F04002D2B21A704FF0000000F053
:400C800099FF45F22013C4F2000345F22012C4F200021278D2B242F01002D2B21A704FF0010000F087FF45F22113C4F200031B78FB7145F22013C4F2000345F22012C4F2DD
:400CC00000021278D2B222F01002D2B21A704FF0000000F06FFFFB7903F00803FB7145F22013C4F2000345F22012C4F200021278D2B242F01002D2B21A704FF0010000F063
:400D000059FF45F22013C4F2000345F22012C4F200021278D2B222F01002D2B21A70FB79002BAAD145F22013C4F2000345F22012C4F200021278D2B222F04002D2B21A7009
:400D400045F22013C4F2000345F22012C4F200021278D2B222F07F02D2B21A7045F22213C4F2000345F22212C4F200021278D2B222F00F02D2B21A7045F22313C4F20003D3
:400D80001B78DBB223F00F03FB7145F22313C4F20003FA7942F00F02D2B21A7045F22413C4F200031B78DBB223F00F03FB7145F22413C4F20003FA7942F00F02D2B21A70D5
:400DC00007F10807BD4680BD80B582B000AF0346FB7145F22013C4F2000345F22012C4F200021278D2B242F02002D2B21A7045F22013C4F2000345F22012C4F2000212785F
:400E0000D2B222F04002D2B21A704FF0000000F0D1FE45F22013C4F2000345F22012C4F200021278D2B222F00F02D2B21A7045F22013C4F2000345F22012C4F2000212787D
:400E4000D1B2FA790A43D2B242F01002D2B21A704FF0010000F0AEFE45F22013C4F2000345F22012C4F200021278D2B222F01002D2B21A7007F10807BD4680BD80B582B04B
:400E800000AF0346FB7145F22013C4F2000345F22012C4F200021278D2B222F06002D2B21A7045F22013C4F2000345F22012C4F200021278D2B222F00F02D2B21A7045F240
:400EC0002013C4F2000345F22012C4F200021278D1B2FA790A43D2B242F01002D2B21A704FF0010000F066FE45F22013C4F2000345F22012C4F200021278D2B222F0100238
:400F0000D2B21A7007F10807BD4680BD80B586B000AF78604FF00A03FB75FB7D07F11801CB184FF0000203F8102CFB7D03F1FF33FB7528E079684CF6CD43CCF6CC43A3FB12
:400F400001234FEAD30213464FEA83039B184FEA4303CA1AD3B203F13003BB75FB7D07F11801CB18BA7D03F8102C7A684CF6CD43CCF6CC43A3FB02134FEAD3037B60FB7D41
:400F800003F1FF33FB757B68092BD3D879684CF6CD43CCF6CC43A3FB01234FEAD30213464FEA83039B184FEA4303CA1AD3B203F13003BB75FB7D07F11801CB18BA7D03F85D
:400FC000102CFB7D07F10802D3181846FFF7A0FD07F11807BD4680BD80B500AF00F0EAFC03461A4648F28253C1F6FF731A7048F28253C1F6FF731A7848F28253C1F6FF73E1
:401000001B7810464FF00A011A464FF0060300F00DFD48F28253C1F6FF731A7848F27053C1F6FF739BB2104645F6A2311A4600F03BFD48F28053C1F6FF731A7848F28253DB
:40104000C1F6FF731B781046194600F03FFC80BD80B500AF00F0AEFC03461A4648F28353C1F6FF731A7048F28353C1F6FF731A7848F28353C1F6FF731B7810464FF00A0176
:401080001A464FF0070300F0D1FC48F28353C1F6FF73197848F27053C1F6FF739AB248F28853C1F6FF739BB2084611461A4600F0FBFC48F28153C1F6FF731A7848F283533E
:4010C000C1F6FF731B781046194600F0FFFB80BD80B500AF4FF002004FF001014FF4804241F6FF7300F01EFA03461A4648F28053C1F6FF731A704FF00A004FF0010141F612
:40110000FF7241F6FF7300F04FFA03461A4648F28153C1F6FF731A7041F29520C0F2000000F084FA4FF0000000F094FA80BD00BF80B582B000AFFFF78BFFFFF74DFF48F21F
:401140008053C1F6FF731B7818464FF0010100F0E3FA48F28153C1F6FF731B7818464FF0010100F0D9FA00F095FA0346FB7146F29543C4F2000346F29542C4F200021278FA
:40118000D2B242F02002D2B21A70FB79184600F085FA46F27243C4F2000346F27242C4F200021278D2B242F00102D2B21A7046F27243C4F2000346F27242C4F20002127899
:4011C000D2B242F00202D2B21A704EF28023CEF200034FF001021A6007F10807BD4680BD80B500AF48F27C53C1F6FF731B68002B08D1FFF76DFF48F27C53C1F6FF734FF00E
:4012000001021A60FFF794FF00F04AF846F26243C4F200031B7880BD80B500AF00F024F980BD00BF80B485B000AF0346FB7146F26243C4F200031B78FB73FB7B002B02D14B
:40124000FB79002BF3D0FB7B184607F11407BD4680BC704780B483B000AF0346FB80FB88C3F1040248F28853C1F6FF7333F812309AB248F29853C1F6FF731B889BB29BB296
:40128000D31A9BB29BB21BB2184607F10C07BD4680BC704780B400AFBD4680BC704700BF80B500AF48F28453C1F6FF731B78002B08D100F00BF848F28453C1F6FF734FF0C2
:4012C00001021A7000F01EF880BD00BF80B500AF45F60913C4F2000345F60912C4F200021278D2B242F00602D2B21A704FF00C0000F08AF848F29453C1F6FF734FF00002BF
:401300001A8080BD80B582B000AF00F0C3F90346FB7144F2AB33C4F2000344F2AB32C4F200021278D2B242F00202D2B21A7044F2BB33C4F2000344F2BB32C4F20002127833
:40134000D2B242F00202D2B21A7045F60B13C4F200031B78BB71BB7943F00203BB71BB7943F00103BB7145F60B13C4F20003BA791A7045F60E13C4F200034FF018021A70DE
:4013800045F60D13C4F2000345F60D12C4F200021278D2B242F04002D2B21A7045F60D13C4F2000345F60D12C4F200021278D2B222F02002D2B21A7045F60813C4F20003F2
:4013C0004FF0C8021A7044F21663C4F200034FF002021A7045F62F33C4F2000345F62F32C4F200021278D2B242F00802D2B21A704FF00A0000F0DEFBFB79184600F04EF908
:4014000007F10807BD4680BD80B584B000AF0346FB71FB790A2B08D00C2B02D0082B08D00BE04FF0C403FB730FE04FF08403FB730BE04FF04403FB7307E04FF0C403FB7347
:401440004FF0000000F086FB00BF45F60A13C4F20003FA7B1A70FB79184600F019F807F11007BD4680BD00BF80B400AF45F60813C4F2000345F60812C4F200021278D2B2FF
:4014800042F00102D2B21A70BD4680BC704700BF80B584B000AF0346FB71FB790A2B08D00C2B02D0082B08D00BE04FF48053FB600FE04FF48063FB600BE04FF48073FB608A
:4014C00007E04FF00003FB604FF0000000F042FB00BF48F29653C1F6FF734FF000021A80FB6842F2107202FB03F303F6C41248F6AD33C6F6DB0383FB02134FEAE3214FEA7A
:40150000E273CA1A48F29C53C1F6FF731A6048F29853C1F6FF734FF000021A8007F11007BD4680BD80B584B002AFF871B971BA807B8048F20C13C1F6FF734FF001021A70FE
:4015400048F20C13C1F6FF731978FA79BB794FF0000000904FF000000190084611461A464FF0010300F0D4F948F20C13C1F6FF731978BA887B88084611461A4600F062F965
:4015800048F20C13C1F6FF731B7818464FF0020100F020F948F20C13C1F6FF731B78184607F10807BD4680BD80B584B002AFF871B971BA807B8048F20D13C1F6FF734FF00F
:4015C00000021A7048F20D13C1F6FF731978FA79BB794FF0000000904FF000000190084611461A464FF0000300F092F948F20D13C1F6FF731978BA887B88084611461A46E5
:4016000000F020F948F20D13C1F6FF731B7818464FF0020100F0DEF848F20D13C1F6FF731B78184607F10807BD4680BD80B485B000AF78604EF60853CEF200031B68FB603A
:40164000FB6803F140037A681A6007F11407BD4680BC704780B483B000AF0346FB714FF46443CEF20003FA794FEA4212D2B21A7007F10C07BD4680BC704700BF0000000025
:401680000230800800F0058000BF013800467FF4FCAF7047EFF3108072B6704780F31088704700BFAFF3008080B483B000AF48F21113C1F6FF734FF07F021A7048F21013B0
:4016C000C1F6FF734FF080021A704FF07F03FB710FE0FB794FEAC30303F1804303F5F043FA7902F1FF32D2B21A70FB7903F1FF33FB71FB79002BECD1FB794FEAC30303F197
:40170000804303F5F0434FF000021A7007F10C07BD4680BC704700BF80B485B000AF02460B46FA71BB714FF00103FB60FB79172B48D8BB79002B16D0FB794FEA031247F234
:401740001003C4F20003D318FA794FEA021147F21002C4F200028A181278D2B242F02002D2B21A7015E0FB794FEA031247F21003C4F20003D318FA794FEA021147F210022D
:40178000C4F200028A181278D2B222F02002D2B21A70FB794FEA031247F21003C4F20003D318FA794FEA021147F21002C4F200028A181278D2B242F00102D2B21A704FF0D9
:4017C0000003FB60FB68184607F11407BD4680BC704700BF80B485B000AF02460B46FA71BB714FF00103FB60FB79172B22D8FB794FEA031247F21003C4F20003D3181B7827
:40180000DBB223F00E03FB72FB794FEA031247F21003C4F20003D318BA7902F00702D2B24FEA4202D1B2FA7A0A43D2B21A704FF00003FB60FB68184607F11407BD4680BCA7
:40184000704700BF80B485B000AF13460246FA710A46BA807B804FF00103FB60BA8841F6FF739A4202D14FF40053BB807A8841F6FF739A4202D14FF400537B80FB79172B9F
:401880001CD8FB794FEAC30303F1804303F5EC4303F10403BB60BB68BA881A80FB794FEAC30303F1804303F5EC4303F10603BB60BB687A881A804FF00003FB60FB68184648
:4018C00007F11407BD4680BC704700BF80B485B000AF02460B46FA71BB714FF00103FB60FB79172B0CD8FB794FEA031247F21003C4F20003D318BA795A724FF00003FB6052
:40190000FB68184607F11407BD4680BC704700BF80B485B000AFF871B9717A713B714FF00103FB60FB79172B3CD8FB794FEAC30303F1804303F5EC43BA7902F07F02D1B2FA
:401940007A794FEAC212D2B20A43D2B21A70FB794FEAC30303F1804303F5EC433A7E4FEA0212D1B23A7902F00F02D2B20A43D2B25A70FB794FEAC30303F1804303F5EC4389
:401980003A7F02F00F02D2B29A70FB794FEAC30303F1804303F5EC434FF00002DA704FF00003FB60FB68184607F11407BD4680BC704700BF80B582B000AF4FF0FF03FB7118
:4019C000FFF768FE0346BB7148F21013C1F6FF731B78182B20D948F21113C1F6FF731B78FB7148F21013C1F6FF731B7803F1FF33DAB248F21013C1F6FF731A70FB794FEAB3
:401A0000C30303F1804303F5F0431B78DAB248F21113C1F6FF731A70BB791846FFF73EFEFB79184607F10807BD4680BD80B485B000AFF871B980BA71FB704FF00103FB6003
:401A4000FB795BB2002B27DBBB8823F47F6323F00F039BB2002B1FD1FB794FEAC30303F1804303F5F043BB60BB68BA881A80FB794FEAC30303F1804303F5F043BA799A70EE
:401A8000FB794FEAC30303F1804303F5F043FA78DA704FF00003FB60FB68184607F11407BD4680BC704700BF80B485B000AF13460246FA710A46BA807B804FF00103FB60A8
:401AC000FB795BB2002B1CDBFB794FEAC30303F1804303F5F04303F10403BB60BB68BA881A80FB794FEAC30303F1804303F5F04303F10603BB60BB687A881A804FF000036B
:401B0000FB60FB68184607F11407BD4680BC704780B400AF44F2AC33C4F2000344F2AC32C4F200021278D2B242F01002D2B21A7044F2BC33C4F2000344F2BC32C4F20002E9
:401B40001278D2B242F01002D2B21A70BD4680BC704700BF80B483B000AF0346FB7101BE07F10C07BD4680BC704700BF80B582B000AF78600BE048F22413C1F6FF731B6810
:401B80001846FFF77DFD7B68A3F500437B607B68B3F5004FEFD848F21C13C1F6FF731B687A6802FB03F31846FFF76AFD07F10807BD4680BD80B582B000AF0346FB80FA88D5
:401BC00048F22013C1F6FF731B7803FB02F31846FFF756FD07F10807BD4680BD80B582B000AF4FF0180000F06BF84FF0180000F083F8FFF74FFD0346FB7146F29753C4F28A
:401C0000000346F29752C4F200021278D2B242F01002D2B21A70FB791846FFF73FFD00F07BF84FF0010000F02FF807F10807BD4680BD00BF80B400AF46F27653C4F2000307
:401C400046F27652C4F200021278D2B262F07F02D2B21A70BD4680BC704700BF80B500AF48F28553C1F6FF731B78002B08D1FFF7B5FF48F28553C1F6FF734FF001021A70A1
:401C8000FFF7D8FF80BD00BF80B483B000AF0346FB7146F28753C4F20003FA791A7007F10C07BD4680BC704780B400AF46F26753C4F200031B78DBB21846BD4680BC7047C5
:401CC00080B483B000AF0346FB8046F64C23C4F20003FA881A8007F10C07BD4680BC704780B400AF46F68C23C4F200031B889BB21846BD4680BC704780B483B000AF03465F
:401D0000FB8046F60C23C4F20003FA881A8007F10C07BD4680BC704780B500AF01E0FFF7DFFFFFF7C1FF034603F00803002BF6D180BD00BF80B500AF00F04EF841F6595069
:401D4000C0F2000000F014F84FF0070000F024F800F036F880BD00BF80B500AFFFF7A4FF48F28653C1F6FF734FF001021A7080BD80B485B000AF78604EF60853CEF2000335
:401D80001B68FB60FB6803F144037A681A6007F11407BD4680BC704780B483B000AF0346FB714EF20143CEF20003FA794FEA4212D2B21A7007F10C07BD4680BC704700BF62
:401DC00080B400AF4FF46143CEF200034FF002021A60BD4680BC704780B400AF4EF28013CEF200034FF002021A60BD4680BC704780B485B000AF0346FB7145F26013C4F24A
:401E000000031B78DBB223F00803FB7345F26013C4F20003FA794FEAC202D2B202F00802D1B2FA7B0A43D2B21A7007F11407BD4680BC704780B400AF45F26113C4F20003FD
:401E40001B78DBB203F008034FEAD303DBB21846BD4680BC704700BF81F0004102E000BF83F0004330B54FEA41044FEA430594EA050F08BF90EA020F1FBF54EA000C55EA5D
:401E8000020C7FEA645C7FEA655C00F0E2804FEA5454D4EB5555B8BF6D420CDD2C4480EA020281EA030382EA000083EA010180EA020281EA0303362D88BF30BD11F0004F26
:401EC0004FEA01314FF4801C4CEA113102D0404261EB410113F0004F4FEA03334CEA133302D0524263EB430394EA050F00F0A780A4F10104D5F1200E0DDB02FA0EFC22FAC6
:401F000005F2801841F1000103FA0EF2801843FA05F359410EE0A5F120050EF1200E012A03FA0EFC28BF4CF0020C43FA05F3C01851EBE37101F0004507D54FF0000EDCF179
:401F4000000C7EEB00006EEB0101B1F5801F1BD3B1F5001F0CD349085FEA30004FEA3C0C04F101044FEA445212F5800F80F09A80BCF1004F08BF5FEA500C50F1000041EBB1
:401F8000045141EA050130BD5FEA4C0C404141EB010111F4801FA4F10104E9D191F0000F04BF01460020B1FA81F308BF2033A3F10B03B3F120020CDA0C3208DD02F1140CEF
:401FC000C2F10C0201FA0CF021FA02F10CE002F11402D8BFC2F1200C01FA02F120FA0CFCDCBF41EA0C019040E41AA2BF01EB0451294330BD6FEA04041F3C1CDA0C340EDC28
:4020000004F11404C4F1200220FA04F001FA02F340EA030021FA04F345EA030130BDC4F10C04C4F1200220FA02F001FA04F340EA0300294630BD21FA04F0294630BD94F04D
:40204000000F83F4801306BF81F480110134013D4EE77FEA645C18BF7FEA655C29D094EA050F08BF90EA020F05D054EA000C04BF1946104630BD91EA030F1EBF002100209E
:4020800030BD5FEA545C05D14000494128BF41F0004130BD14F580043CBF01F5801130BD01F0004545F0FE4141F470014FF0000030BD7FEA645C1ABF194610467FEA655CFB
:4020C0001CBF0B46024650EA013406BF52EA033591EA030F41F4002130BD00BF90F0000F04BF0021704730B54FF4806404F132044FF000054FF0000150E700BF90F0000FCB
:4021000004BF0021704730B54FF4806404F1320410F0004548BF40424FF000013EE700BF42004FEAE2014FEA31014FEA02701FBF12F07F4393F07F4F81F06051704792F019
:40214000000F14BF93F07F4F704730B54FF4607401F0004521F0004120E700BF50EA010208BF704730B54FF000050AE050EA010208BF704730B511F0004502D5404261EBD2
:4021800041014FF4806404F132045FEA915C3FF4DCAE4FF003025FEADC0C18BF03325FEADC0C18BF033202EBDC02C2F1200300FA03FC20FA02F001FA03FE40EA0E0021FAE5
:4021C00002F11444C1E600BF4A0011D212F5001211D20DD56FF47873B3EB62520ED44FEAC12343F0004343EA505323FA02F070474FF00000704750EA013002D14FF0FF30D6
:4022000070474FF00000704780F0004002E000BF81F0004142001FBF5FEA410392EA030F7FEA226C7FEA236C6AD04FEA1262D2EB1363C1BFD218414048404140B8BF5B42A2
:40224000192B88BF704710F0004F40F4000020F07F4018BF404211F0004F41F4000121F07F4118BF494292EA030F3FD0A2F1010241FA03FC10EB0C00C3F1200301FA03F17E
:4022800000F0004302D5494260EB4000B0F5000F13D3B0F1807F06D340084FEA310102F10102FE2A51D2B1F1004F40EBC25008BF20F0010040EA03007047490040EB000099
:4022C00010F4000FA2F10102EDD1B0FA80FCACF1080CB2EB0C0200FA0CF0AABF00EBC25052421843BCBFD0401843704792F0000F81F4000106BF80F400000132013BB5E7C2
:402300004FEA41037FEA226C18BF7FEA236C21D092EA030F04D092F0000F08BF0846704790EA010F1CBF0020704712F07F4F04D1400028BF40F00040704712F100723CBF0B
:4023400000F50000704700F0004343F0FE4040F4000070477FEA226216BF08467FEA23630146420206BF5FEA412390EA010F40F4800070474FF0000304E000BF10F0004309
:4023800048BF40425FEA000C08BF704743F0964301464FF000001CE050EA010208BF70474FF000030AE000BF50EA010208BF704711F0004302D5404261EB41015FEA010C51
:4023C00002BF84460146002043F0B64308BFA3F18053A3F50003BCFA8CF2083AA3EBC25310DB01FA02FC634400FA02FCC2F12002BCF1004F20FA02F243EB020008BF20F074
:402400000100704702F1200201FA02FCC2F1200250EA4C0021FA02F243EB020008BF20EADC7070472DE9F041274C84B025680746D5F84841002C41D066681F2E1CDD23488E
:4024400010B94FF0FF301FE04FF4C870039102920193AFF3008003990446029A019B0028EFD0D5F84861002060602660C5F84841C4F88801C4F88C01656847B9A81C013551
:4024800044F820106560002004B0BDE8F081012000FA05F0D4F8886104EB85080643022FC8F88820C4F88861C8F80831E6D1D4F88C3143EA0002C4F88C21DFE705F5A6748E
:4024C000C5F84841B8E700BF9C28000000000000114B124A70B5981A831018D0591E02EB83040D4654F8042D01F00106904775B126B154F8040D8047013D08D054F8043D1C
:402500009847013D54F8041D8847013DF6D1BDE8704000F0D1B900BFC8280000C4280000F8B5204F204C381B871017D07A1E2368012502F001069847AF420FD02EB154F85E
:40254000041F02258847AF4208D0606880470235A268261D90470834AF42F6D1134F144C00F09EF93B1B9F1018D07D1E216805F0010601258847AF4211D02EB154F8040F40
:4025800002258047AF420BD0626890470235A368261D98470834AF42F6D1F8BDF8BDF8BDF8BD00BFAC280000AC280000B8280000AC2800000F2A2DE9F00340F2A18041EAB9
:4025C00000039B0740F09E800C68A2F1100504604B68AC4643608C68BCF10F0F8460CC68C5F30015C46000F1100301F110042BD975B12568ACF1100C1D6065685D60A568CA
:402600009D60E5681034DD601033BCF10F0F1BD9276804F110061F60676803F110055F60A768ACF1200C9F60E768DF6024691C61776806F110046F60B7682033AF60F66816
:40264000BCF10F0FEE60E3D8A2F1100828F00F0302F00F0403F1100C032C00EB0C0301EB0C0851D9211F4FEA9109444608EB890C54F8046BC8EB0C010CF1040C1D46644590
:4026800045F8046BC1F3800112D029B154F8041B644545F8041B0BD0274657F8041B2E4646F8041B64686C603C1D351D6445F3D109F1010C4FEA8C0902F0030208EB09010D
:4026C0004B44D2B10D789A18DC4303F8015B1419934204F0010410D02CB111F8014F03F8014B934209D04D781C4604F8015B8D7802315D70631C9342F5D1BDE8F003704728
:402700000346DEE70346DDE741462246D9E700BFF0B48407034600F08D80541E002A00F08780E507CEB211D41A4602F8016B13461546920710D0621E002C79D003F8016B68
:4027400014469A071D4607D0013CEDE7034603F8016B9A071D46F7D1032C52D9CEB246EA06270F2C47EA07432DD9A4F1100217460F2FC2F300162B606B60AB60EB6005F1F5
:40278000100216D93EB1103F136053609360D36010320F2F0DD9203F02F11006136053609360D360136153619361D36120320F2FF1D8A4F1100222F00F0204F00F041032B8
:4027C000032C15441DD9271F3E462A46032E42F8043BC7F380070DD927B1043E032E42F8043B07D9174647F8043B083E53603A1D032EF7D8231F23F00302131D04F00304FC
:40280000ED18ACB1C9B2EA432C1905F8011BA318A54203F001020BD01AB105F8011BA54206D02B4603F8011B69705D1CA542F8D1F0BC7047054614468EE700BF024B13B145
:40284000024800F005B8704700000000D12400000146002002460346FFF7E4BD00000000105100401000405100402000C05100401000F0510040100000000140001000142D
:402880000140000800400140000A004C014000020050014020000000430000002881FF1FF8B500BFF8BC08BC9E4670473D28000051000000F1030000F8B500BFF8BC08BCED
:4028C0009E4670472D000000D82800000881FF1F480400005000000000000000FFFF0000807F00000300000000366E01C05D0000180000000000E02E000000001484FF1F2F
:402900007C84FF1FE484FF1F000000000000000000000000000000000000000000000000000000000000000000000000982800000000000000000000000000000000000033
:402940000000000000000000000000000000000000000000000000000000000000000000000000000000000000000000000000000000000000000000000000000000000057
:40298000000000000000000000000000000000000000000000000000000000000000000001000000000000000E33CDAB34126DE6ECDE05000B0000000000000000000000EA
:4029C00000000000000000000000000000000000000000000000000000000000000000000000000000000000000000000000000000000000000000000000000000000000D7
:402A00000000000000000000000000000000000000000000000000000000000000000000000000000000000000000000000000000000000000000000000000000000000096
:402A40000000000000000000000000000000000000000000000000000000000000000000000000000000000000000000000000000000000000000000000000000000000056
:402A80000000000000000000000000000000000000000000000000000000000000000000000000000000000000000000000000000000000000000000000000000000000016
:020000040003F7
:0200000480007A
:4000000004520040015B00400164004001650040060001401D0101401C02014032030140290401403A0501400C060140350701400608014026090140010D01401D1401408A
:4000400036150140361601403D17014006190140031B01400B4001400A4101400442014004430140044501400948014014490140064C01400A4D01400850014002510140DA
:4000800000021854191C34022F848504870D580459045F01D804D904DF0101220408052208830A040F02112114C2164829222A082B012C412D203001350238083A403D2994
:4000C0003E0C3F028B01C07AC28BC4DACABFCC81CEEAE620020407020C010F0112011E042101260827042A022F083003320C3304350837033E0452035302540158045904D8
:400100005B045C095F01D804D904DF0101220402058006020701088209040A020C400E80112117241EC01F042418251C270129262B012E1A2F0232013480352638183D20D1
:400140003E403F0A5D806C016F048840910194089B209C829D229F01A304A514A701AB04AF20C09AC29DC46ACAFFCCF1CEF6D6100A013001580459045F018202830284400E
:40018000868087088A088C0290809102924095049601980899089C109E209F10A004A304A420A610A701A801A901AE04B6FFB71FB980BE40BF40D602D724D804D904DB04ED
:4001C000DF01010202100304040A05120614070109480A400D080E940F021001120414031501160817441A401B011D402540288029102B012D012E58300131083576380A3C
:400200003DA03E0667086D016E846F16760A77017C807D80810483409008930896109C829D269E08A118A703C0FEC2FDC4F3CAFDCCF3CEF3D820030223012A01310134011F
:400240003702580459045F01D804D904DF01010402900402051009620A100D020E100F0211101480161017101D30240225022680274028802A102B012C042D092E1030048F
:4002800031123510374038023D943E02850289508B018D1091019210940298809A129B109D109F40A140A301B108C05CC2BFC472CAEDCC37CEF1E002580459045F01D80445
:4002C000D904DF010082061208080A040E24100811401210140816A028082C082EA02F2030083142354036023A923D403E048612880189428A148D408E02A008B008C0A9E6
:40030000C266C477CA74CC9BCE5DE0C0E420EC20E280580459045F01810682038301880389078F079003940399049B039C019D079E02A003A403A503A704AD07B101B20122
:40034000B402B504B702D804D904DF010010028004100510068809420A100C880D020E100F0210801230144016101C041E2024802520264028402A902E082F02300831123F
:400380003302344036A038013C013D803E903F028040865089208C04921099109A10A142A280A301C05AC2BDC43CCA5DCC37CEB1E210E6C0E810EE04401649FF4AFF4BFF1A
:4003C0004F0150185280580459045A045B045D115F016040624064406540668068806A806C806E808A018E01B601BE40C013C5ECC702C813C9FFCAFFCBFFCD83CE03CF01CF
:40040000D018D401D604D804D904DA04DB04DD11DF01E040E240E440E540E680E880EA80EC80EE8001080291030804020510060409420A100C400D020E100F021040120423
:400440001690194028402A902B102F02311233023518368038023D803E903F2243484601474049054C045004530859456340774087409002921099109A10A142A280A301B9
:40048000AE10B401B508C05FC2BDC43ACA1FCC75CEB1D01AD220D60BD801E040E802AC40AE80B408B720E040E840E210E810EE04128013041680302036403B023E808820AE
:4004C000C430CC30CE60010257109702A640AA80AF04C010D440E840EC2097029902A640A71097029902A640A71022048A04C802E201240886408D0297029902A640A710AB
:40050000C820E640570158105B045E0166018304841087018A018E018F10A710AB01B404D480D6E0D880E280E650EE201F8034028C20C601CC01E002181078208C1098203E
:40054000AB80B402C608DE02E208E80800010101080109010A010C0110031A03000F100A0102020002000000007F7F000000000000000000007C7C000200000A080000007A
:40058000000000000001000000000000000000000000000000000000000000000000000000000000000000000000000000000000000000000000000000000000000000003A
:4005C00000000000000000000000000000000000000000000000000000000000000000000000000000000000000000000000000000000000000000000000000000000000FB
:4006000000000000000000000000000000000000000000000000000000000000000000000000000000000000000000000000000000000000000000000000000000000000BA
:40064000000000000000000000000000000000000000000000000000000000000000000000000000000000000000000000000000000000000000000000000000000000007A
:40068000000000000000000000000000000000000000000000000000000000000000000000000000000000000000000000000000000000000000000000000000000000003A
:0200000490006A
:0400000000004005B7
:0200000490105A
:04000000BC90ACAF55
:0200000490303A
:020000007E1070
:0200000490402A
:4000000000000000000000000000000000000000000000000000000000000000000000000000000000000000000000000000000000000000000000000000000000000000C0
:400040000000000000000000000000000000000000000000000000000000000000000000000000000000000000000000000000000000000000000000000000000000000080
:400080000000000000000000000000000000000000000000000000000000000000000000000000000000000000000000000000000000000000000000000000000000000040
:4000C0000000000000000000000000000000000000000000000000000000000000000000000000000000000000000000000000000000000000000000000000000000000000
:0200000490501A
:0C00000000012E12306900012E25AE799F
:00000001FF